:020000040800F2
:10000000180700206D020008832800081D2800083A
:10001000812800088D160008E12B00080000000070
:100020000000000000000000000000008728000819
:100030008F160008000000008528000889280008A5
:10004000870200088702000887020008870200086C
:10005000870200088702000887020008870200085C
:10006000870200088702000887020008870200084C
:10007000870200088702000887020008870200083C
:10008000870200088702000887020008870200082C
:10009000870200088702000887020008870200081C
:1000A000870200088702000887020008870200080C
:1000B00087020008870200088702000887020008FC
:1000C00087020008870200088702000887020008EC
:1000D00087020008D52B0008870200088702000865
:1000E00087020008870200088702000887020008CC
:1000F00087020008870200088702000887020008BC
:1001000087020008870200088702000887020008AB
:10011000870200088702000887020008870200089B
:10012000870200088702000887020008870200088B
:10013000870200088702000887020008870200087B
:10014000870200088702000887020008870200086B
:10015000870200088702000887020008870200085B
:10016000870200088702000887020008870200084B
:1001700087020008870200088702000800000000CC
:10018000870200088702000887020008870200082B
:10019000870200088702000887020008870200081B
:1001A00087020008870200088702000800F002F8B2
:1001B00000F04CF80AA090E8000C82448344AAF1B5
:1001C0000107DA4501D100F041F8AFF2090EBAE8B3
:1001D0000F0013F0010F18BFFB1A43F0010318477B
:1001E000782E0000982E0000103A24BF78C878C1FD
:1001F000FAD8520724BF30C830C144BF04680C602D
:10020000704700000023002400250026103A28BF74
:1002100078C1FBD8520728BF30C148BF0B60704778
:10022000662902F0C186642900F0CC800020704766
:100230001FB502F0B4FE00F057FC040000200021BE
:1002400002F020FEE0601FBD10B510BD00F04CFDB7
:100250001146FFF7EDFF02F02DFD00F06AFD03B43B
:10026000FFF7F2FF03BC00F0ADFD00000948804736
:1002700009480047FEE7FEE7FEE7FEE7FEE7FEE788
:10028000FEE7FEE7FEE7FEE704480549054A064BA0
:100290007047000025290008AD0100081801002062
:1002A00018070020180300201803002053EA020C4E
:1002B00000F069802DE9F04B4FF00006002B1FBFC6
:1002C000B3FA83F503FA05F424FA05F65E4012BF8B
:1002D0001643B2FA82F502FA05F4C5F120051EBFF5
:1002E00022FA05FC44EA0C04203556EA044C4FEA95
:1002F000144418BF641C4FF000084FF000099042EE
:1003000071EB030C39D3002919BFB1FA81F701FA57
:1003100007F6B0FA80F700FA07F6C7F120071EBF0C
:1003200020FA07FC46EA0C062037B6FBF4FCA7EBE4
:100330000507103F07F01F0BCBF120060CFA0BFB53
:100340002CFA06F644BFB3460026202FA4BF5E4613
:100350004FF0000B5BEA060C08BF4FF0010B19EBE6
:100360000B09ABFB027C48EB0608C01B06FB02CC6A
:100370000BFB03CC71EB0C01C1E70B460246414677
:100380004846BDE8F08B13B54FF000004FF0000178
:10039000AFF30080BDE81C40704700000FB41CB5EF
:1003A000074B06AA7B4469460090059800F083FB42
:1003B0000020694600F092FB1CBC5DF814FB0000B5
:1003C000350700002DE9F041064600241068752924
:1003D000314616A510D0AFF30080002802DA404263
:1003E00013A507E031688A0701D512A502E0490785
:1003F00004D511A5012401E0AFF3008000210A22F9
:1004000006F1240709E0B0FBF2FCB0FBF2F302FBBB
:100410001C00303078541846491C0028F3D123467C
:100420002A463046BDE8F04100F0D8B80000000090
:100430002D0000002B000000200000002DE9F047F7
:100440004FF0000A89460446C0F820A02046E16823
:100450008847002876D0252806D0D4E90121904786
:10046000206A401C2062F1E7E168204600258847A9
:10047000C4F81CA006460027C4F818A02A2E09D0EC
:10048000304602F0D6FB38B304EB8708303EC8F89C
:10049000186019E059F8041B204604EB87029161AB
:1004A000E1688847012F064618D1E069002820DA64
:1004B00025F020051DE0D8F8180000EB800006EBC1
:1004C00040003038C8F818002046E16888470646E2
:1004D00002F0AFFB0028EED1012F0AD02E2E08D15A
:1004E0002046E16888477F1C0646022F45F020051C
:1004F000C4DBA069002803DA404245F00105A06191
:10050000E80701D025F01005B6B1A6F14100192881
:1005100002D8203645F400654A463146204625601B
:100520004D46FFF77DFE58B1012806D0ED1D25F0A0
:10053000070000F1080989E704E005F1040985E7EF
:1005400030468AE7206ABDE8F08710B5431C02E018
:1005500010F8011B71B18107FAD14FF0013202C8C6
:100560008C1A8C4314EAC211F9D0C01A0A0603D0BF
:10057000C01E10BDC01A10BD0A0401D0801E10BDDF
:100580000902FCD0401E10BD4FF0000200B513461A
:1005900094469646203922BFA0E80C50A0E80C50A3
:1005A000B1F12001BFF4F7AF090728BFA0E80C5054
:1005B00048BF0CC05DF804EB890028BF40F8042B4D
:1005C00008BF704748BF20F8022B11F0804F18BFBA
:1005D00000F8012B70477047704770472DE9F047CE
:1005E0000D4699469246044600F1240801688806A3
:1005F00004D5E06921F01001216000E00120A8424B
:1006000001DD471B00E00027A1697A1902EB090010
:10061000081AA0612078C00602D42046AFF30080FB
:10062000002608E0D4E901211AF806009047206A64
:10063000401C761C20624E45F4DB2078C0060AD5AB
:100640002046AFF3008006E0D4E901213020904736
:10065000206A401C2062381EA7F10107F4DC07E085
:10066000D4E9012118F805009047206A401C206257
:10067000281EA5F10105F3DC2046AFF300802078A9
:10068000000602D50220BDE8F0870120FBE7704795
:100690002DE9FF4F0C461E464FF0FF378BB0D2E9D5
:1006A0000001DDF860800A908A46C1F30A5505B959
:1006B0003D46002108464FF00000BAF1000F00F45B
:1006C000400005DA00EB80004FF4400101EA5000E1
:1006D0004FEA9059B9F1010F00DDB9460A9850EA86
:1006E0004A000ED044F61050A5F2FF3545432F14B2
:1006F000B8F1000F1ED07542291E1EDDC9F100029F
:100700001CE0B8F1010F4FF0000001D0302103E0F0
:10071000F24305E02154401CB042FBDB304600228E
:10072000002121540B99C1F80880C1E900200FB0C5
:10073000BDE8F08FBD1B6D1CDEE74A4600DA69425A
:1007400006A800F05BFA06AB93E8070003AB83E86A
:10075000070050460A9900F03CFB8DE80700A0F521
:1007600000501F3800900398002D0ADD42F21F014F
:100770004A460844002303A90390684600F0A5FDFB
:1007800009E0A0F500504A461F38002303A9039052
:10079000684600F0AFFD8DE807000004000C03D0B0
:1007A0004FF0FF30410800E01046B8F1000F03D0D1
:1007B0000022009215461EE0751E05D400F098F93F
:1007C000303262556D1EF9D5B3460122084302D07E
:1007D00000227F1C04E02078302801D100227F1EF7
:1007E000002A099784D01DE0112D07DA00F080F966
:1007F000303262556D1C50EA0102F5D1084302D037
:100800000098C8B10EE00021681E05E0235C625C20
:1008100063542254401E491C8142F7DBAB46A81B9F
:10082000401E0990002004F80B000B98099AC0F8AC
:100830000880C0E9002B7AE711264FF0000857E73F
:100840002DE9F04F88460446D21D22F0070191B0F1
:10085000D1E90001CDE90A0102F0C3F902460B9883
:10086000C00F01D02D2007E02068810701D52B2083
:1008700002E0202101EAC000032A099001D0072AE2
:1008800005DB03464146204600F078F90BE120786D
:10089000800601D5E06900E00620B8F1650F8146C9
:1008A00006D0B8F1660F18D0B8F1670F70D131E0FB
:1008B0000020B9F1110F009001DB112301E009F1D3
:1008C00001030AAA01A90CA8FFF7E2FEDDE90C70FA
:1008D000002609F10105834647E001204B460090C0
:1008E0004FF000470AAA01A90CA8FFF7D1FEDDE9E5
:1008F0000DB00C995D46002610B909F101000D18E4
:10090000B9EB050003D4C0F1FF3609F10105A5EBF1
:1009100009002BE0B9F1010F01DA4FF001090020C5
:10092000B9F1110F0090484601DD112300E00346A4
:100930000AAA01A90CA8FFF7ABFEDDE90C704D4631
:1009400000268346207800070AD4AB4500DA5D46CE
:1009500001A8012D04DD411911F8011C302907D02F
:100960004F4502DA17F1040F04DA012082460FE046
:100970006D1EEEE7002F02DCED1B3E4403E0781C09
:10098000A84200DD7D1CB81B00F1010A4FF00047B2
:100990002078000703D4AA4501DB4FF0FF3A00217D
:1009A000B7F1004F0DF143088DF8431024D0022019
:1009B0002B23002F01DA7F422D230A21021EA0F1F2
:1009C000010000DC5FB197FBF1FC97FBF1F201FB4A
:1009D0001C7C17460CF1300C08F801CDEEE7A8F1AD
:1009E000010003702188090501D5452100E065213A
:1009F000A0F1010800F8011C09980FA9A1EB080754
:100A0000FF1D00B10120411901EBEA70A1693844D2
:100A1000081A401EA0612078C00602D42046AFF319
:100A20000080099828B1D4E901219047206A401C30
:100A300020622078C00622D52046AFF300801EE059
:100A4000002E04DBB34502DD01A8805D00E030200C
:100A5000D4E901219047206A401C2062761CAAF14B
:100A600001005FEA000A0AD100F03EF8C0680168A0
:100A7000405CD4E901219047206A401C2062281E76
:100A8000A5F10105DCDC07E0D4E9012118F8010B30
:100A90009047206A401C2062381EA7F10107F3DC52
:100AA0002046AFF30080032011B041E601694A1CE3
:100AB00002610878704700B58FB0CDE9013100219F
:100AC000059105497944CDE9031011466846FFF7C1
:100AD000B5FC0FB000BD0000E5FFFFFF0A6802F89B
:100AE000010B0A607047000000487047D4000020E6
:100AF00030B5B0F10A024FEA900E71F100034EEAF0
:100B0000817EB0EB0E0061EB91014FEA101E4EEAC0
:100B1000017E10EB0E0041EB11114FEA102E4EEA50
:100B2000016E10EB0E0041EB11214FEA104E4EEA20
:100B3000014E10EB0E0041EB1141401841F1000154
:100B40004FEAD00040EA41704FEAD10110EB800536
:100B50004FEA810444EA907444EB01046D1944EBBC
:100B60000404521BA3414FF0000348BF0A3200D5D2
:100B700030BD401C41F1000130BD00002DE9F041C5
:100B80001F46044603260168072A01F4006004DBBF
:100B900008B116A505E016A503E008B115A500E00B
:100BA00015A521F010002060A069C01EA0610FB142
:100BB000401EA0612046AFF300804FB1D4E901216F
:100BC00038469047206A401C2062C01C206206E024
:100BD000206AFAE7D4E9012115F8010B9047761E47
:100BE000F8D22046AFF30080BDE8F0814E414E00C0
:100BF0006E616E00494E4600696E66002DE9F04751
:100C0000814616468AB0354878440DC88DE80D00F7
:100C100032487844801C03AC0DC884E80D0041F6CE
:100C20009B300844372190FBF1F290FBF1F5A5F1E0
:100C3000800501FB12041B3C02D56442012000E048
:100C40000020DFF898A080460027FA44AAF1BE0AE7
:100C50000EE0E0070AD03246684607EB4701012361
:100C60000AEB810100F046FB8DE8070064107F1C51
:100C7000002CEED1194F7F44AE3F19E0E80715D0A4
:100C800007EB04100DF1180A90E80E008AE80E0038
:100C9000C068F04201D1981908903246012306A994
:100CA00003A800F027FB03AB83E807006D10641C6A
:100CB000002DE3D14FF0010332466946B8F1000F31
:100CC00003A802D000F001FB01E000F013FBC9E92A
:100CD0000001C9F808200AB0BDE8F08734240000FC
:100CE00000487047B40000207546FFF7F9FFAE4694
:100CF00005006946534620F00700854618B020B528
:100D0000FFF7C2FABDE820404FF000064FF00007A1
:100D10004FF000084FF0000B21F00701AC46ACE8A3
:100D2000C009ACE8C009ACE8C009ACE8C0098D4610
:100D3000704710B50446AFF300802046BDE8104070
:100D4000FFF78DBA4FF0013C50F8042B51F8043BEB
:100D50009A4221D1A2EB0C03934313EACC1317D18F
:100D600050F8042B51F8043B9A4215D1A2EB0C0326
:100D7000934313EACC130BD150F8042B51F8043BE6
:100D80009A4209D1A2EB0C03934313EACC13DBD0B4
:100D90004FF00000704700BFD01A01BAB1FA81F1DC
:100DA00001F0180122FA01F0CB40C1F12001DBB2C1
:100DB000C0B2C01A2CFA01F3D11A914311EAC3113F
:100DC000E6D1704701491820ABBEFEE726000200BD
:100DD00070475FEA400C08BF91F0000F4FEA8C2388
:100DE0004FEAC12243EA51514FEA1C5018BF00F5A7
:100DF000F0404FEA300018BF41F000415FEA6C5C00
:100E000000F02980BCF1FF3F08BF40F080407047F0
:100E1000130C06BF12044FF0100C4FF0000C130E11
:100E200004BF12020CF1080C130F04BF12010CF1E5
:100E3000040C930F04BF92000CF1020CD30F04BFFB
:100E400052000CF1010C11464FF00002A0F11F00FE
:100E5000A0EB0C00704711F0004F08BF704731F055
:100E600000413FF4D5AF0B0C06BF09044FF0100C46
:100E70004FF0000C0B0E04BF09020CF1080C0B0F15
:100E800004BF09010CF1040C8B0F04BF89000CF1A5
:100E9000020CCB0F04BF49000CF1010CCCF1200374
:100EA000A0EB0C0022FA03F302FA0CF241EA030170
:100EB00000F10100704720F07F4C80EA030023F02E
:100EC0007F47ACEB070303F57C5300F0004003F1D0
:100ED000FF032DE980494FEA154B09B44FEA14434B
:100EE00025EA0B4E24EA03480FF2042606EB1327EB
:100EF00049083E785FEA320203FB0667C7F5000740
:100F000007FB06F64FEA54374FEAD64606F10206CB
:100F100007FB066CCCF1005C4FEA1C472CEA074C3F
:100F200007FB06F40CFB06F504EB15464FEA961694
:100F300034BF00204FF000404FEAD13706FB07FCDA
:100F40004FEA1C4C0CFB0BF7D21B03FB0CF761EBBD
:100F500007010CFB0EF7B0EB074072EB17420CFBDE
:100F600008F734BFA2EB0742B2EB074261EB17412F
:100F70004FEA0C444FEA910706FB07FC4FEA1C4C72
:100F80000CFB0BF7B0EBC74072EB573203FB0CF7CF
:100F900034BFA2EBC742B2EBC74261EB57310CFB47
:100FA0000EF7B0EBC70072EB57720CFB08F734BFBB
:100FB000A2EBC702B2EBC70261EB5771039F4FEA86
:100FC000816141EA921104EBCC044FEAD1374FEA38
:100FD000826206FB07FC42EA90124FEA80604FEA09
:100FE0001C4C0CFB0BF7D21B03FB0CF761EB07014E
:100FF0000CFB0EF7B0EB074072EB17420CFB08F747
:1010000034BFA2EB0742B2EB074261EB17414FEA54
:101010008C554FEA910704EB9C2406FB07FC4FEA32
:101020001C4C0CFB0BF7B0EBC74072EB573203FBC9
:101030000CF734BFA2EBC742B2EBC74261EB5731AA
:101040000CFB0EF7B0EBC70072EB57720CFB08F706
:1010500034BFA2EBC702B2EBC70261EB577115EBCD
:101060004C254FEA816141EA92114FEA82624FEAD0
:10107000D13742EA901206FB07FC44F100044FEA24
:1010800080604FEA1C4C0CFB0BF7D21B03FB0CF7E8
:1010900061EB07010CFB0EF7B0EB074072EB174258
:1010A0000CFB08F734BFA2EB0742B2EB074261EB3F
:1010B000174115EB1C154FEA813141EA92414FEA85
:1010C000823242EA90424FEA80304FEA0C7644F195
:1010D000000448EA03434EEA0B484FF0000EB2EB1F
:1010E000080C71EB030724BF624639464EEB0E0E27
:1010F0004FF0000B0018524149414BEB0B0BB2EB88
:10110000080C71EB03077BF1000B24BF62463946E4
:101110004EEB0E0E4FF0000B0018524149414BEBC5
:101120000B0BB2EB080C71EB03077BF1000B24BF38
:10113000624639464EEB0E0E51EA020718BF46F0E2
:10114000010616EB0E7655F1000254F1000103D5AD
:10115000BDE88901BDE80088BDE88901BDE8004817
:10116000B619524141EB0101A3F1010370478080A0
:101170007F7E7D7C7B7A79787776767574737271F1
:1011800071706F6E6E6D6C6C6B6A6A6968686766A9
:1011900066656464636362616160605F5F5E5E5D3B
:1011A0005D5C5C5B5B5A5A595958585757565655AF
:1011B00055555454535352525251515050504F4F11
:1011C0004F4E4E4D4D4D4C4C4C4B4B4B4A4A4A4961
:1011D00049494848484747474746464645454544A4
:1011E0004444444343434342424242414141002B31
:1011F0009C4630D477002BD01CB54FEA370703B498
:101200004FF010004FF01001BAF1000F06D0BCF102
:10121000000FDCBF40F0080040F008014FF0000074
:101220000FBCBDE810400BF1010BBBF1010F08BF73
:101230005FEA170722BF12F1010211F101014FF01D
:10124000004143F1000300F0004043EA0000704712
:10125000F9D35708D0E746EA064613F1400F4FEAA4
:1012600016461FDD13F1200FDFBF16430A4600218B
:1012700020335B42BED0C3F1200746EA064602FA9D
:1012800007F74FEA164646EA0706C3F1200722FA97
:1012900003F201FA07F721FA03F14FF0000342EAE3
:1012A0000702A7E746EA020646EA06464FEA16465E
:1012B00046EA0106BCBF46EA0646360C4FF000037C
:1012C0004FF000024FF0000194E72DE9804C9A4660
:1012D000934670B491E8380007C831EA400C48BF23
:1012E00034EA430C03D5FFF7E6FDFFF780FFF0BCBF
:1012F000BDE8008C2DE9804C9A46934670B491E885
:10130000380007C810F0804F08BF13F0804F03D19A
:1013100000F005F8FFF76BFFF0BCBDE8008C20F093
:101320007F4780EA030023F07F4C07EB0C03A3F513
:101330007C5300F00040A3F1FE0392F0000F00F098
:10134000B38095F0000F00F077802DE901494FEA56
:1013500011404FEA144621EA004800FB06FC24EA4B
:10136000064708FB06F607FB08F800FB07F718EB33
:1013700006484CEB164C4FEA124B18EB07484FEA65
:1013800015464CEB174022EA0B4E0BFB06FC25EAF8
:1013900006470EFB06F607FB0EFE0BFB07F71EEBE0
:1013A000064E4CEB164C4FF000061EEB074E4CEB76
:1013B000174B18EB0B0840F1000018EB0E0B58EB25
:1013C000000840F100008F1A4FF000013CBFC943F4
:1013D000661B14BFB5EB040C00213CBFC943F61BD0
:1013E0004FEA17444EEA8E0E27EA04454FEA1C479F
:1013F00004FB07622CEA074C05FB07F70CFB05F61C
:1014000004FB0CFC16EB074642EB174216EB0C46AE
:1014100042EB1C421BEB060658EB0202414146EA36
:101420009E0601D5BDE80189B619524141EB010183
:10143000A3F10103BDE801894FEA14454FEA1147C2
:1014400024EA054621EA074C05FB07F406FB07F7EB
:101450000CFB06F105FB0CFC11EB074144EB1744B8
:101460004FEA124711EB0C4144EB1C4422EA074CB3
:1014700005FB07F206FB07F70CFB06F605FB0CFC69
:1014800016EB074642EB174216EB0C4642EB1C45A7
:101490006A1854F1000148BF7047B619524141EB38
:1014A0000101A3F10103704795F0000F37D04FEA17
:1014B00011424FEA144721EA024624EA074C02FB94
:1014C00007F106FB07F70CFB06F402FB0CFC14EB20
:1014D000074441EB17414FEA154714EB0C4441EB2D
:1014E0001C4125EA074C02FB07F506FB07F70CFB3E
:1014F00006F602FB0CFC16EB074645EB174516EB10
:101500000C4645EB1C42121951F1000148BF7047CF
:10151000B619524141EB0101A3F1010370474FEAB3
:1015200014454FEA114724EA054621EA074C05FB1A
:1015300007F106FB07F70CFB06F24FF0000605FB70
:101540000CFC12EB074241EB174112EB0C4251EB42
:101550001C4148BF7047921841EB0101A3F1010300
:1015600070470000464910B54A6822F440324A608C
:101570004A6843681A434A6001684A6822F48072E4
:101580004A6001684A68036942EA03224A600168C6
:101590004A6822F040724A6001684A6883681A43C8
:1015A0004A6001688A6822F400628A6001688A6879
:1015B000C3681A438A60816A6FF07062D142016821
:1015C0008A6822F070628A6001688A680CD0836A37
:1015D0001A438A6001688A6822F040528A60016872
:1015E0008A68C36A1A4301E022F040528A600168A7
:1015F0008A6822F002028A6001688A68037E42EAF1
:1016000043028A6090F82010002901684A680FD0D0
:1016100042F400624A6001684A6822F460424A600B
:1016200001684A68174C436A04EB43331A4301E0EC
:1016300022F400624A600168CA6A22F47002CA6237
:101640000168CA6A838B104C04EB03531A43CA62C5
:1016500001688A6822F400728A6001688A6890F8DA
:10166000303042EA43228A6001688A6822F480624C
:101670008A6001688A68406942EA8020886010BDFB
:101680000023014000E0FFFF0000F0FFFEE770478D
:1016900078B50024009490F83C20012A19D001224A
:1016A00080F83C200A6807230568092A13D9EE68E8
:1016B0000A3A02EB420293409E43EE600B788A683E
:1016C0000A3B03EB43039A400368DD682A43DA6070
:1016D00010E0022078BD2E6902EB420293409E4347
:1016E0002E610B788A6803EB43039A4003681D69F7
:1016F0002A431A614A681F23072A13D205686E6BB2
:10170000521E02EB820293409E436E630A8893B29C
:101710000A79521E02EB820293400268556B2B43FA
:10172000536327E005680D2A12D22E6BD21F02EBFD
:10173000820293409E432E630B790A88DB1F92B28C
:1017400003EB83039A4003681D6B2A431A6311E07D
:10175000EE6A0D3A02EB820293409E43EE620B79F1
:101760000A880D3B92B203EB83039A400368DD6A5B
:101770002A43DA621B4B0568194A9D420AD10D685B
:10178000122D07D1556825F400055560556845F4BC
:101790008005556005689D421DD1134D0B68AB4215
:1017A00001D0112B17D1536823F480035360536881
:1017B00043F4000353600968A9420CD10B490C4A59
:1017C0000968B1FBF2F101EB8101490000E0491E1B
:1017D00000910029FBD180F83C40002078BD00003A
:1017E00000230140002001401200001010000020E2
:1017F00040420F000068C06C704770B504004FF0A5
:10180000000503D0206C002610B107E0012070BD58
:10181000204600F01DF8666484F83C60206CC00629
:1018200010D4206C20F4885040F002002064204640
:10183000FFF798FE6664206C20F0020040F0010083
:10184000206400E0012584F83C60284670BD00005B
:1018500010B586B0044614216846FEF795FE11497E
:10186000206888421CD110480021026842F480722E
:101870000260006800F4807005900B48143802681C
:1018800042F004020260006800F0040005900820A5
:1018900000900320CDE901016946044800F04AF9AF
:1018A00006B010BD0020014044380240000802404C
:1018B0002DE9F041044600680D4681684FF00007AD
:1018C00049050BD58068C00508D5206C40F0200084
:1018D000206484F83C700120BDE8F08100F044FAF7
:1018E000064613E0681C11D025B100F03DFA801BBC
:1018F000A8420BD920680068800707D4206C40F00C
:101900000400206484F83C700320E5E72068006848
:101910008007E7D521686FF012000860206C40F462
:10192000007020642068816811F0405F13D1217E2F
:1019300089B9C16A11F4700F02D0806840050AD4D9
:10194000206C20F480702064206CC00403D4206CD0
:1019500040F0010020640020BEE7000018B500211F
:10196000009190F83C20012A07D0012280F83C2009
:1019700002689368DB0702D011E0022018BD93686B
:1019800043F0010393602E4A2E4B1268B2FBF3F230
:1019900002EB420200E0521E0092002AFBD10268D4
:1019A0009368DB0742D0036C40F20164A34343F425
:1019B0008073036453685B0505D5036C23F40053FF
:1019C00043F480530364036CDB0404D5436C23F0BD
:1019D0000603436400E0416480F83C101A496FF04C
:1019E0002203136049680068CA06184906D0884275
:1019F00024D1816811F0405F13D01FE08842F8D0F5
:101A0000134A904203D1D1F80423D206F1D0114AEF
:101A1000904213D1D1F8041301F01F011029E8D32B
:101A20000CE0816841F08041816007E0016C41F089
:101A300010010164416C41F001014164002018BDB6
:101A40001000002040420F00002301400020014010
:101A500000210140002201402DE9F0410446876D3C
:101A600000F082F9064694F835000025022806D0D9
:101A70008020606584F834500120BDE8F081206842
:101A8000016821F0160101602068416921F08001A0
:101A90004161206C08B9A06C20B12068016821F078
:101AA000080101602068016821F0010101600CE07B
:101AB00000F05AF9801B052807D920206065032013
:101AC00084F8350084F83450D7E720680068C007F0
:101AD000EED194F85C103F208840B860012084F873
:101AE000350084F834500020C7E790F835100229FB
:101AF00003D08021416501207047052180F8351011
:101B00000068016821F001010160002070470000B9
:101B100070B5044600F028F90546601C02D0044860
:101B20000078044400F020F9401BA042FAD370BDB5
:101B3000040000202DE9F84FDFF8F8A1002201246D
:101B400003254FF00F090AF1040BAAF1040E00BFA0
:101B50000B6804FA02F63340B34270D10F7907F0F4
:101B60000307012F01D0022F16D187684FEA4208E0
:101B700005FA08FC27EA0C07D1F80CC00CFA08FC9F
:101B80004CEA070CC0F808C04768B7430E79C6F3A3
:101B9000001696403E4346600E79F643B6070AD0DB
:101BA000C7684FEA420C05FA0CF6B7438E6806FA8E
:101BB0000CF63E43C6600E7906F00306022E10D1E5
:101BC000D60800EB8608D8F8206057074FEAD76C94
:101BD00009FA0CF7BE430F6907FA0CF73743C8F848
:101BE000207006684FEA420C05FA0CF7BE430F79E5
:101BF00007F0030707FA0CF7374307604E6816F43F
:101C0000403F1CD04C4E376847F4804737603668F9
:101C100022F0030706F480460096484E07EB060CB8
:101C2000DCF8086897073F0F09FA07F826EA080664
:101C3000DFF80C81404503D14FF0000841E072E02D
:101C4000DFF80081404502D14FF0010839E0DFF8AC
:101C5000F880404502D14FF0020832E0DFF8EC8016
:101C6000404502D14FF003082BE0DFF8E480404507
:101C700002D14FF0040824E0DFF8D880404502D1BB
:101C80004FF005081DE0DFF8D080404502D14FF04D
:101C9000060816E0DFF8C480404502D14FF007087F
:101CA0000FE0DFF8BC80404502D14FF0080808E0A3
:101CB000DFF8B080404502D14FF0090801E04FF055
:101CC0000A0808FA07F848EA0608CCF80888DAF89B
:101CD00000605746D1F804C09E435FEACC2C00D583
:101CE0001E433E60DBF800605F46D1F804C09E43AF
:101CF0005FEA8C2C00D51E433E60DEF8006077461C
:101D0000D1F804C09E435FEA8C3C00D51E433E6080
:101D1000084F083F3E68D1F804C09E435FEACC3CC0
:101D200000D51E433E60521C102AFFF411AFBDE8DF
:101D3000F88F0000083C0140443802400030014068
:101D4000000002400004024000080240000C024073
:101D5000001002400014024000180240001C024023
:101D600000200240002402400148806870470000C3
:101D700004000020024881680278114481607047A5
:101D8000040000200B4810B5016841F400710160A7
:101D9000016841F480610160016841F48071016073
:101DA000032000F06FF80F2000F006F800F024F890
:101DB000002010BD003C024070B50D4D04464FF4AC
:101DC0007A712878B1FBF0F00A490968B1FBF0F0AC
:101DD00000F00CFB48B9102C07D200222146501EFF
:101DE00000F030F800206C6070BD012070BD000074
:101DF00004000020100000200A4808B5016841F4E2
:101E000080410160006800F4804000900548001F98
:101E1000016841F080510160006800F0805000903E
:101E200008BD000044380240002809DB00F01F0212
:101E3000012191404009800000F1E020C0F800112C
:101E400070470000F0B40E4B1B680C46C3F302232E
:101E5000C3F10705042D00D90425191D072901D256
:101E6000002300E0DB1E012606FA05F1491E214091
:101E700099409E40761E16403143F0BC00F0C9BE2A
:101E80000CED00E0064900F0070208684FF6FF037A
:101E9000184040EA0220034A1043086070470000DF
:101EA0000CED00E00000FA052DE9F0470E460500B4
:101EB00065D0DFF81481D8F80000F7B200F00F0009
:101EC000B04207D288F80070D8F8000000F00F0088
:101ED000B04254D128683D4C810712D5400703D544
:101EE000206840F4E05020602878000703D520687F
:101EF00040F4604020602068A96820F0F0000843AA
:101F000020602878C0072DD030496868083901283A
:101F100012D0022813D0032811D00968890700299C
:101F20002DDA216821F0030101432160FFF71CFF36
:101F3000814641F2883A0EE009688903EFE70968B3
:101F40008901ECE7FFF710FFA0EB0901514502D929
:101F50000320BDE8F0872068696800F00C00B0EB52
:101F6000810FEFD1D8F80010404601F00F01B142C7
:101F700007D90770006800F00F00B04201D00120BF
:101F8000E7E72878400705D52068E96820F4E050A5
:101F9000084320602878000706D52068296920F4C6
:101FA000604040EAC100206000F038F82168084A2B
:101FB000C1F30311515CC840064908600648006837
:101FC000FFF7FAFE0020C4E7003C02400838024058
:101FD000AC2F00081000002008000020044805492C
:101FE00000680968044AC1F38221515CC840704707
:101FF0001000002008380240BC2F000804480549A2
:1020000000680968044AC1F34231515CC840704716
:102010001000002008380240BC2F0008154810B5F9
:10202000006810F00C02144813D01449042A0FD091
:10203000082A0ED10F4C241F2268236802F03F02A9
:102040005B0207D52068C0F38810A0FB010106E001
:10205000084610BD2168C1F38811A1FB00010023CF
:10206000FEF724F92168C1F30141491C4900B0FB86
:10207000F1F010BD083802400024F40040787D01E2
:102080002DE9F84F04006ED02078DFF84C93C0079C
:10209000A9F104054AD009F104000168C1F38101E6
:1020A000012908D00068C0F3810002280AD1D9F8BC
:1020B0000000400206D52868800337D560680028F4
:1020C000E1D033E06068B0F5803F10D0B0F5A02FCC
:1020D000286810D020F480302860286820F4802000
:1020E00028606068A8B1FFF73FFE06460DE028684B
:1020F00040F48030F4E740F480202860F7E700BF28
:10210000FFF732FE801B642873D828688003F7D558
:102110000CE0FFF729FE064605E000BFFFF724FEAE
:10212000801B6428F0D828688003F7D42078DFF873
:10213000AC8280074FF0000A3ED5A748001D016819
:1021400011F00C0F08D00068C0F3810002280BD1F9
:10215000D9F80000400207D42868800716D5E06847
:10216000012800D112E033E1E068B8B10120C8F8DD
:102170000000FFF7F9FD064605E000BFFFF7F4FD9C
:10218000801B0228C0D828688007F7D528682169F5
:1021900020F0F80040EAC10028600DE0C8F800A077
:1021A000FFF7E2FD064604E0FFF7DEFD801B022894
:1021B0001FD828688007F7D42078000722D5864FDB
:1021C00087486169703771B101210160FFF7CCFD6B
:1021D000064604E0FFF7C8FD801B022809D83868CE
:1021E0008007F7D50EE0C0F800A0FFF7BDFD06465A
:1021F00005E082E0FFF7B8FD801B02287DD8386833
:102200008007F7D42078400768D5DFF8CCB10027E5
:102210000BF13C0BDBF80000C0000BD4DBF8001026
:1022200041F08051CBF80010DBF80000012700F0EE
:10223000805000906B4E3068C00510D4306840F478
:1022400080703060FFF790FD009005E0FFF78CFD97
:102250000099401A022850D83068C005F6D55E4E65
:10226000A0686C3601280FD00528306810D020F007
:1022700001003060306820F004003060A068B8B120
:10228000FFF772FD00900FE0306840F00100F4E7C6
:1022900040F004003060F7E7FFF766FD0099411A4F
:1022A00041F28830814266D830688007F4D50EE06C
:1022B000FFF75AFD009007E0FFF756FD0099411A1D
:1022C00041F28830814256D830688007F4D42FB16B
:1022D000DBF8001021F08051CBF80010A069C8B3E2
:1022E0003D49091D0968C1F3810102294AD002282C
:1022F000504607D0C8F8600000E03CE0FFF734FD2E
:1023000004463BE04746C8F86000FFF72DFD06464F
:1023100005E000BFFFF728FD801B02282BD82868A6
:102320008001F7D4D4E907010843A16A2E4A49087D
:1023300002EB0141626A41EA8211084394F82C10D1
:1023400040EA0161C9F8001001203866FFF70CFD72
:10235000044606E03EE000BFFFF706FD001B022832
:1023600009D828688001F7D534E000BFFFF7FCFCEE
:10237000001B022802D90320BDE8F88F28688001DD
:10238000F4D427E00128F7D0D9F80000E26900F47E
:10239000800191421CD1226A00F03F01914217D185
:1023A00047F6C071626A0140B1EB821F10D1A26A88
:1023B0004FF0FF3300F4403103EB5202B1EB024F18
:1023C00006D194F82C1000F07060B0EB016F01D0D2
:1023D0000120D1E70020CFE7043802400000474247
:1023E000800E4742007000400000FFFF10B5401E05
:1023F000B0F1807F01D3012010BD4FF0E024606177
:102400000F21601700F005FC0020A061072020616B
:10241000002010BD70477047F8B501680446086891
:10242000CA684B6910F00F0F4FF0000559D003F048
:10243000010602F49077374365D0C10705D0D10576
:1024400003D5616C41F001016164410705D5D907ED
:1024500003D0616C41F002016164810705D5D907A1
:1024600003D0616C41F004016164010707D502F0FB
:102470002001314303D0616C41F008016164616C5B
:1024800000293AD0800604D5900602D5204600F0F7
:102490007FFA20684069616CC0F38010090700D49E
:1024A00060B3204600F04DFA20684069400621D50F
:1024B0002068143050E8001F21F0400140E800126D
:1024C000002AF5D1E06BA8B172490165E06BFFF716
:1024D0000CFB002811D0E06B016D01B0BDE8F040AD
:1024E000084783060FD593060DD52046BDE8F84072
:1024F00000F04EBA2046FFF78EFFF8BD2046FFF7EA
:102500008AFF6564F8BD266B2023012E7ED1C606A6
:102510007CD5D6067AD508684868009048694FF09F
:10252000020640064DD5E26B106840684FF4807794
:102530000004000C3AD0A18D814237D9E085D069E2
:10254000B8422DD020680C3050E8001F21F4807173
:1025500040E80012002AF5D12068143050E8001F2E
:1025600021F0010140E80012002AF5D12068143062
:1025700050E8001F21F0400140E80012002AF5D188
:1025800084F84230256320680C3050E8001F21F0A9
:10259000100140E80012002AF5D1E06BFFF75CFA69
:1025A0006663A08DE18D401A81B206E0A18D814263
:1025B000A8D1D069B842A5D166632046FFF72AFFAB
:1025C000F8BDA08DE18D401A81B2E08D0028F7D0D2
:1025D0000029F5D020680C3050E8002F22F49072CA
:1025E00040E80027002FF5D12068143050E8002F74
:1025F00022F0010240E80027002FF5D184F8423094
:10260000256320680C3050E8002F00E006E022F03F
:10261000100240E80023002BF3D1CDE705062BD5AF
:10262000150629D594F841002128C9D1A068B0F534
:10263000805F01D12069B0B1206A411C216221680C
:1026400000784860E08C401E0004000CE084B7D1A4
:102650002068C16821F08001C1602068C16841F034
:102660004001C160F8BD206A0088C0F308004860DE
:10267000206A801C2062E5E74006F3D55006F1D5BC
:10268000CA68204622F04002CA6084F8413000F057
:10269000C4F8F8BD3529000870B5040004D094F8DA
:1026A0004100002510B106E0012070BD84F84050C3
:1026B000204600F023F8242084F841002068C168F7
:1026C00021F40051C160204600F0C4F9206801697E
:1026D00021F4904101612068416921F02A014161A2
:1026E0002068C16841F40051C1606564202084F80D
:1026F000410084F842006563002070BD10B586B0CB
:10270000044614216846FDF73FFF184920688842B7
:1027100029D117480021026842F0100202600068C7
:1027200000F01000059012481438026842F00102CF
:102730000260006800F0010005904FF4C060009056
:102740000220CDE90101032003900720049069468F
:102750000848FFF7EFF9002211462520FFF772FB2A
:102760002520FFF761FB06B010BD000000100140FE
:10277000443802400000024070472DE9F843044607
:1027800090F84100984616460D46202802D00220B7
:10279000BDE8F88385B17EB100206064212084F813
:1027A0004100FFF7E1FAA6848146E684A06820276D
:1027B000B0F5805F02D003E00120E9E7206910B1A5
:1027C0002E4600250EE000260CE08021204600F079
:1027D000C7F9A8B9C6B116F8010B21684860E08CAA
:1027E000401EE084E08C4B464FF00002CDF80080A4
:1027F0000028EAD14FF04001204600F0B1F940B185
:1028000084F841700320C3E735F8020BC0F30800D9
:10281000E3E784F841700020BAE77047FEE7000064
:102820007FB5002414480094019402941149039444
:10283000C0E9001484600461047680F820400F49E8
:10284000C0E90A140125C561C46080F830404561C3
:10285000FEF7D3FF08B172B6FEE70D20CDE9000503
:10286000694602940448FEF713FF002801D072B6AF
:10287000FEE77FBD00200140240000200100000F82
:10288000FEE7FEE770477047FFF774BA30B593B0C4
:1028900030216846FDF778FE14210CA8FDF774FE80
:1028A0001E480025016841F080510160006800F079
:1028B000805011901A48016821F4404141F40041D0
:1028C00001600068022400F4404011900120039050
:1028D0001020009406940490CDE907500001CDE942
:1028E000090404200B906846FFF7CAFB08B172B6D2
:1028F000FEE70CA90F2081E831004FF4A0500F90A3
:102900004FF48050109004210CA8FFF7CDFA002856
:1029100001D072B6FEE713B030BD0000403802406F
:10292000007000400248016841F470010160704786
:1029300088ED00E010B5806B0021C185FFF76BFDCD
:1029400010BD01680C3151E8002F22F4907241E86B
:102950000023002BF5D10168143151E8002F22F03B
:10296000010241E80023002BF5D1016B012909D1B7
:1029700001680C3151E8002F22F0100241E80023D9
:10298000002BF5D1202180F842100021016370470F
:1029900008B590F84210222901D0022008BD8268B3
:1029A0004FF480539A4201D1016921B1816A9A4260
:1029B0001BD04AB10AE00268816A5268C2F3080279
:1029C0000A80816A891C08E0026972B10268526853
:1029D00002F07F020A70816A491C8162C18D491E22
:1029E0000904090CC18503D01BE002685268F1E7B5
:1029F0000168CA6822F02002CA600168CA6822F42D
:102A00008072CA6001684A6922F001024A6120218D
:102A100080F8421000214163026B012A03D0FFF7C6
:102A2000ABFE002008BD016301680C3151E8002FA6
:102A300022F0100241E80023002BF5D101680A685A
:102A4000D20602D50A6849680091818DFFF7E2FC41
:102A5000E7E7000070B5044600680169E26821F408
:102A60004051114301612169A068E269084361692D
:102A7000114308432168CA6849F20C639A43024330
:102A8000CA6020684169A26921F440711143416123
:102A900031492068884202D03049884202D1FFF78C
:102AA000ADFA01E0FFF79AFAE269002319216425E3
:102AB0003226B2F5004F626828D0A0FB0101930FC7
:102AC0009200FDF7F3FB0146B0FBF5F06FF0180242
:102AD000504301EB800006EB0010B0FBF5F000F076
:102AE000F002B1FBF5F002EB0012B1FBF5F06FF074
:102AF0001803584301EB800006EB0010B0FBF5F023
:102B000000F00F0021681044886070BDA0FB010137
:102B100092185B41FDF7CAFB0146B0FBF5F00201DC
:102B2000B1FBF5F06FF01803584301EB800006EBA2
:102B3000C000B0FBF5F000F0F80002EB4002B1FB82
:102B4000F5F0584301EB800006EBC000B0FBF5F058
:102B500000F00700D6E7000000100140001401401B
:102B60002DE9F843984617460D460446089E24E092
:102B7000701C22D0FFF7F8F8A0EB0800B0421AD87A
:102B8000CEB12068C168490717D5802D15D0402DDA
:102B900013D00168C94309070FD4016800254068B4
:102BA00000902046FFF7CDFE0820606484F8405076
:102BB0000120BDE8F8830320FBE72068006835EAC0
:102BC000000004D00020B842D2D00020F1E701205C
:102BD000F9E700000148FFF71FBC00006C0000206F
:102BE000FEE703B401984100009850EAC12018BFE5
:102BF00004204A0D18BF40F0010040F2FF72B2EB12
:102C0000515F08BF40F00200012808BF052002B054
:102C100070470907090E002804DB00F1E02080F866
:102C20000014704700F00F0000F1E02080F8141D40
:102C3000704730380A2801D20120704700207047C1
:102C400010B50D4A04460120C2E900100020906032
:102C500011462046FEF71CFD08B172B6FEE720467D
:102C6000FEF77CFE0A212046FEF722FE2046FEF7F4
:102C7000C1FD80B210BD00001400002010B5FFF7A8
:102C8000DFFF00EE100ADFED080A0948B8EE400A3F
:102C900020EE200ADFED050A80EE201A90ED000AF2
:102CA00021EE000A10BD000000404E4500F07F45B7
:102CB000000000202DED028B92B0FFF763F8FFF7C4
:102CC000E5FD36480024016841F004010160016817
:102CD00001F004011191016841F0010101600068F7
:102CE00000F001001190FFF79BFD2E482C49016078
:102CF0004FF4E131C0E901140C21C460C0E9044182
:102D00008461C461FFF7C8FC08B172B6FEE726A370
:102D10000DF1340C0FCB8CE80F000DA9214800F009
:102D20006FF8204811214838FFF7A8FF10EE100A6D
:102D300000F0C4F841EC100B1FA153EC102B6846B7
:102D4000FDF72CFB6946174800F05AF84FF47A75E6
:102D500014480D214838FFF773FF044611480D2130
:102D60004838FFF78BFFB0EE408A19A10D4800F0FC
:102D700047F821460B4800F075F81CA1094800F0FF
:102D80003FF8B0EE480A074800F052F81AA105488B
:102D900000F036F82846FEF7BBFED9E7303802408F
:102DA000001001406C00002048656C6C6F20576F6C
:102DB000726C64210D0A000056524546494E54205B
:102DC00056616C75653A20252E32666D560D0A00E7
:102DD0004144432056616C75652831326269742024
:102DE0006E756D626572293A200000000D0A566FFB
:102DF0006C746167653A20006D560D0A0A00000088
:102E00002DE9F04107460D460846FDF79EFB86B2C8
:102E1000002409E02919642301223846FFF7ADFC9C
:102E20000120FEF775FE641CB442F3DBBDE8F081BF
:102E300010B5044686B010EE100A00F03FF841ECE1
:102E4000100B06A153EC102B6846FDF7A7FA694654
:102E50002046FFF7D5FF06B010BD0000252E3266D4
:102E60000000000010B586B004460A4604A168467A
:102E7000FDF794FA69462046FFF7C2FF06B010BD81
:102E80002564000010B500290AD00878002807D072
:102E900005487844FDF756FF002801D0002010BDFA
:102EA0000248784410BD0000E6010000DE01000089
:102EB0000808A0F500114FEA3101704743004FEABE
:102EC000D30C4FEA3C0C43401FBF40070CF160514C
:102ED00013F0FE4F70471CF0006F03D100200CF080
:102EE000004170470CF0004343EA507010B540EACF
:102EF000CC0000F00EF800BF000000924FEA000185
:102F0000FFF7D6BF4FF000414FF00000A1F50021C0
:102F100070470EF1020E2EF0030E5EF8044B2442B1
:102F200004D44FEA4102B2F17F4F11D84FEA400377
:102F3000B3F17F4F0CD80ED14FEAD07CB2F17F4F66
:102F40000CEB4C0C0CF1020C08BF4CEBD17C04E0F8
:102F50004FF0080C01E04FEAD17C0CEB4C0324FA53
:102F600003F404F00704B4F1040C06D20EEB840C55
:102F7000BDE810404CF0010C6047DFE80CF007089A
:102F800002024FF00040A0F5800010BD084642004C
:102F900018BFD2F1807288BF00F0004010BD4FF022
:102FA0004070E1EE100A7047FDF74ABC00000000D7
:102FB00000000000010203040607080900000000E9
:102FC0000102030402400000000000A00000000015
:102FD00005400000000000C8000000000C40000098
:102FE0000000409C00000000194000000020BCBE12
:102FF0000000000034400000BFC91B8E0000000428
:10300000B5400000504BCFD06607E2CF0100000072
:103010006C4100003E8251AADFEEA734010000009F
:10302000D9420000DCB5A0E23A301F97FFFFFFFF56
:10303000B4450000FD25A0C8E9A3C14FFFFFFFFF75
:10304000FF3F00000000008000000000FF3F000084
:103050000000008000000000943000080000002004
:1030600014000000E8010008A83000081400002047
:1030700004070000040200081C00000043000000D8
:10308000F8FFFFFF0C0000000E0000000F00000022
:103090002E0000000000803F010000001000000032
:0830A000000000000024F40010
:04000005080001AD41
:00000001FF
