:020000040800F2
:10000000882800204D0200087719000851180008C0
:10001000751900085F040008E11F000800000000D7
:100020000000000000000000000000007B19000834
:100030006104000800000000791900087D1900081B
:1000400067020008670200086702000867020008EC
:1000500067020008670200086702000867020008DC
:1000600067020008670200086702000867020008CC
:1000700067020008670200086702000867020008BC
:1000800067020008670200086702000867020008AC
:10009000670200086702000867020008670200089C
:1000A000670200086702000867020008670200088C
:1000B000670200086702000867020008670200087C
:1000C000670200086702000867020008670200086C
:1000D00067020008D51F00086702000867020008D1
:1000E000670200086702000867020008670200084C
:1000F000670200086702000867020008670200083C
:10010000670200086702000867020008670200082B
:10011000670200086702000867020008670200081B
:10012000670200086702000867020008670200080B
:1001300067020008670200086702000867020008FB
:1001400067020008670200086702000867020008EB
:1001500067020008670200086702000867020008DB
:1001600067020008670200086702000867020008CB
:10017000670200086702000867020008000000002C
:1001800067020008670200086702000867020008AB
:10019000670200086702000867020008670200089B
:1001A00067020008670200086702000800F002F812
:1001B00000F03CF80AA090E8000C82448344AAF1C5
:1001C0000107DA4501D100F031F8AFF2090EBAE8C3
:1001D0000F0013F0010F18BFFB1A43F0010318477B
:1001E00098230000B8230000103A24BF78C878C1D3
:1001F000FAD8520724BF30C830C144BF04680C602D
:10020000704700000023002400250026103A28BF74
:1002100078C1FBD8520728BF30C148BF0B60704778
:100220001FB502F079F91FBD10B510BD00F0E2F85E
:100230001146FFF7F5FF02F07DF800F000F903B476
:10024000FFF7F2FF03BC00F003F900000948804704
:1002500009480047FEE7FEE7FEE7FEE7FEE7FEE7A8
:10026000FEE7FEE7FEE7FEE704480549054A064BC0
:1002700070470000151A0008AD0100088822002010
:1002800088280020882400208824002053EA020CBB
:1002900000F069802DE9F04B4FF00006002B1FBFE6
:1002A000B3FA83F503FA05F424FA05F65E4012BFAB
:1002B0001643B2FA82F502FA05F4C5F120051EBF15
:1002C00022FA05FC44EA0C04203556EA044C4FEAB5
:1002D000144418BF641C4FF000084FF0000990420E
:1002E00071EB030C39D3002919BFB1FA81F701FA78
:1002F00007F6B0FA80F700FA07F6C7F120071EBF2D
:1003000020FA07FC46EA0C062037B6FBF4FCA7EB04
:100310000507103F07F01F0BCBF120060CFA0BFB73
:100320002CFA06F644BFB3460026202FA4BF5E4633
:100330004FF0000B5BEA060C08BF4FF0010B19EB06
:100340000B09ABFB027C48EB0608C01B06FB02CC8A
:100350000BFB03CC71EB0C01C1E70B460246414697
:100360004846BDE8F08B13B54FF000004FF0000198
:10037000AFF30080BDE81C4070474FF0000200B5AD
:10038000134694469646203922BFA0E80C50A0E8B8
:100390000C50B1F12001BFF4F7AF090728BFA0E866
:1003A0000C5048BF0CC05DF804EB890028BF40F832
:1003B000042B08BF704748BF20F8022B11F0804F74
:1003C00018BF00F8012B704770477047704710B591
:1003D00000F008F8006810BD10B5044600F002F8FF
:1003E000046010BD00487047282200200048704774
:1003F000282200207546FFF7F9FFAE460500694642
:10040000534620F00700854618B020B5FFF72CFFB3
:10041000BDE820404FF000064FF000074FF0000805
:100420004FF0000B21F00701AC46ACE8C009ACE886
:10043000C009ACE8C009ACE8C0098D46704710B5EA
:100440000446AFF300802046BDE81040FFF7F7BE3A
:1004500001491820ABBEFEE7260002007047FEE708
:10046000704772B6FEE7000030B50C4AD2E90013BF
:10047000994201D1002030BD094C01EB410304EB4E
:10048000830338CB80E83800A1F58070633803D04F
:10049000491C0120116030BD0021FAE70400002052
:1004A000C80000200448D0E90010814201D1012099
:1004B00070470020704700000400002070B50D4C0C
:1004C0006568A5F58073633B05D06B1C2668B34255
:1004D00003D1002070BD0023F8E705EB4506064D6B
:1004E00045F8260005EB86000171826001206360FB
:1004F00070BD000004000020C800002030B50C4A88
:10050000D2E90213994201D1002030BD094C01EB20
:10051000410304EB830338CB80E83800A1F58070F9
:10052000633803D0491C0120916030BD0021FAE7F7
:1005300004000020781100200448D0E90210814214
:1005400001D1012070470020704700000400002006
:1005500070B50D4CE568A5F58073633B05D06B1C49
:10056000A668B34203D1002070BD0023F8E705EB75
:100570004506064D45F8260005EB860001718260B0
:100580000120E36070BD000004000020781100200D
:100590002DE9F0410446876D00F082F9064694F893
:1005A00035000025022806D08020606584F834508C
:1005B0000120BDE8F0812068016821F0160101608A
:1005C0002068416921F080014161206C08B9A06C6C
:1005D00020B12068016821F00801016020680168ED
:1005E00021F0010101600CE000F05AF9801B0528A0
:1005F00007D920206065032084F8350084F8345042
:10060000D7E720680068C007EED194F85C103F205F
:100610008840B860012084F8350084F83450002008
:10062000C7E790F83510022903D0802141650120E9
:100630007047052180F835100068016821F001013C
:10064000016000207047000070B5044600F028F9F2
:100650000546601C02D004480078044400F020F9EC
:10066000401BA042FAD370BD140000202DE9F84FC2
:10067000DFF8F8A10022012403254FF00F090AF149
:10068000040BAAF1040E00BF0B6804FA02F6334013
:10069000B34270D10F7907F00307012F01D0022F69
:1006A00016D187684FEA420805FA08FC27EA0C07CA
:1006B000D1F80CC00CFA08FC4CEA070CC0F808C0D2
:1006C0004768B7430E79C6F3001696403E4346602E
:1006D0000E79F643B6070AD0C7684FEA420C05FA0E
:1006E0000CF6B7438E6806FA0CF63E43C6600E79E8
:1006F00006F00306022E10D1D60800EB8608D8F8C3
:10070000206057074FEAD76C09FA0CF7BE430F6910
:1007100007FA0CF73743C8F8207006684FEA420C16
:1007200005FA0CF7BE430F7907F0030707FA0CF739
:10073000374307604E6816F4403F1CD04C4E376874
:1007400047F480473760366822F0030706F4804696
:100750000096484E07EB060CDCF8086897073F0F39
:1007600009FA07F826EA0806DFF80C81404503D1AC
:100770004FF0000841E072E0DFF80081404502D10F
:100780004FF0010839E0DFF8F880404502D14FF022
:10079000020832E0DFF8EC80404502D14FF0030858
:1007A0002BE0DFF8E480404502D14FF0040824E05C
:1007B000DFF8D880404502D14FF005081DE0DFF892
:1007C000D080404502D14FF0060816E0DFF8C48023
:1007D000404502D14FF007080FE0DFF8BC804045EC
:1007E00002D14FF0080808E0DFF8B080404502D1A0
:1007F0004FF0090801E04FF00A0808FA07F848EA44
:100800000608CCF80888DAF800605746D1F804C02A
:100810009E435FEACC2C00D51E433E60DBF80060AF
:100820005F46D1F804C09E435FEA8C2C00D51E437E
:100830003E60DEF800607746D1F804C09E435FEA70
:100840008C3C00D51E433E60084F083F3E68D1F8FF
:1008500004C09E435FEACC3C00D51E433E60521C60
:10086000102AFFF411AFBDE8F88F0000083C0140EA
:1008700044380240003001400000024000040240C1
:1008800000080240000C0240001002400014024028
:1008900000180240001C02400020024000240240D8
:1008A00001488068704700001400002002488168F9
:1008B0000278114481607047140000200B4810B585
:1008C000016841F400710160016841F480610160D8
:1008D000016841F480710160032000F06FF80F207F
:1008E00000F006F800F024F8002010BD003C0240A3
:1008F00070B50D4D04464FF47A712878B1FBF0F0D5
:100900000A490968B1FBF0F000F00CFB48B9102C63
:1009100007D200222146501E00F030F800206C6003
:1009200070BD012070BD00001400002020000020D8
:100930000A4808B5016841F480410160006800F48C
:10094000804000900548001F016841F0805101601F
:10095000006800F08050009008BD0000443802405C
:10096000002809DB00F01F020121914040098000AE
:1009700000F1E020C0F8001170470000F0B40E4B09
:100980001B680C46C3F30223C3F10705042D00D9ED
:100990000425191D072901D2002300E0DB1E0126D2
:1009A00006FA05F1491E214099409E40761E1640E8
:1009B0003143F0BC01F028BB0CED00E0064900F02B
:1009C000070208684FF6FF03184040EA0220034A76
:1009D00010430860704700000CED00E00000FA05CD
:1009E0002DE9F0470E46050065D0DFF81481D8F8F0
:1009F0000000F7B200F00F00B04207D288F8007094
:100A0000D8F8000000F00F00B04254D128683D4CE7
:100A1000810712D5400703D5206840F4E0502060DC
:100A20002878000703D5206840F4604020602068E3
:100A3000A96820F0F000084320602878C0072DD076
:100A4000304968680839012812D0022813D00328D9
:100A500011D00968890700292DDA216821F00301E6
:100A600001432160FFF71CFF814641F2883A0EE006
:100A700009688903EFE709688901ECE7FFF710FFD0
:100A8000A0EB0901514502D90320BDE8F087206899
:100A9000696800F00C00B0EB810FEFD1D8F80010BE
:100AA000404601F00F01B14207D90770006800F01D
:100AB0000F00B04201D00120E7E72878400705D5B4
:100AC0002068E96820F4E050084320602878000797
:100AD00006D52068296920F4604040EAC100206002
:100AE00000F038F82168084AC1F30311515CC8408E
:100AF0000649086006480068FFF7FAFE0020C4E7D0
:100B0000003C024008380240402500082000002038
:100B1000180000200448054900680968044AC1F328
:100B20008221515CC84070472000002008380240F4
:100B3000502500080448054900680968044AC1F3C3
:100B40004231515CC8407047200000200838024004
:100B500050250008154810B5006810F00C02144824
:100B600013D01449042A0FD0082A0ED10F4C241F89
:100B70002268236802F03F025B0207D52068C0F3B9
:100B80008810A0FB010106E0084610BD2168C1F3F2
:100B90008811A1FB00010023FFF778FB2168C1F356
:100BA0000141491C4900B0FBF1F010BD083802407A
:100BB0000024F40040787D012DE9F84F04006ED048
:100BC0002078DFF84C93C007A9F104054AD009F159
:100BD00004000168C1F38101012908D00068C0F355
:100BE000810002280AD1D9F80000400206D5286801
:100BF000800337D560680028E1D033E06068B0F545
:100C0000803F10D0B0F5A02F286810D020F480309D
:100C10002860286820F4802028606068A8B1FFF769
:100C20003FFE06460DE0286840F48030F4E740F4CB
:100C300080202860F7E700BFFFF732FE801B6428A2
:100C400073D828688003F7D50CE0FFF729FE064625
:100C500005E000BFFFF724FE801B6428F0D8286859
:100C60008003F7D42078DFF8AC8280074FF0000AC9
:100C70003ED5A748001D016811F00C0F08D0006890
:100C8000C0F3810002280BD1D9F80000400207D43C
:100C90002868800716D5E068012800D112E033E10A
:100CA000E068B8B10120C8F80000FFF7F9FD06467A
:100CB00005E000BFFFF7F4FD801B0228C0D82868BC
:100CC0008007F7D52868216920F0F80040EAC100C4
:100CD00028600DE0C8F800A0FFF7E2FD064604E03A
:100CE000FFF7DEFD801B02281FD828688007F7D495
:100CF0002078000722D5864F87486169703771B127
:100D000001210160FFF7CCFD064604E0FFF7C8FDB6
:100D1000801B022809D838688007F7D50EE0C0F894
:100D200000A0FFF7BDFD064605E082E0FFF7B8FD35
:100D3000801B02287DD838688007F7D420784007C8
:100D400068D5DFF8CCB100270BF13C0BDBF80000D5
:100D5000C0000BD4DBF8001041F08051CBF800103C
:100D6000DBF80000012700F0805000906B4E3068E7
:100D7000C00510D4306840F480703060FFF790FDFB
:100D8000009005E0FFF78CFD0099401A022850D82A
:100D90003068C005F6D55E4EA0686C3601280FD0CD
:100DA0000528306810D020F001003060306820F055
:100DB00004003060A068B8B1FFF772FD00900FE04A
:100DC000306840F00100F4E740F004003060F7E7DD
:100DD000FFF766FD0099411A41F28830814266D8DA
:100DE00030688007F4D50EE0FFF75AFD009007E069
:100DF000FFF756FD0099411A41F28830814256D8DA
:100E000030688007F4D42FB1DBF8001021F0805156
:100E1000CBF80010A069C8B33D49091D0968C1F3AA
:100E2000810102294AD00228504607D0C8F8600044
:100E300000E03CE0FFF734FD04463BE04746C8F8DD
:100E40006000FFF72DFD064605E000BFFFF728FD17
:100E5000801B02282BD828688001F7D4D4E9070129
:100E60000843A16A2E4A490802EB0141626A41EA3D
:100E70008211084394F82C1040EA0161C9F800106F
:100E800001203866FFF70CFD044606E03EE000BF97
:100E9000FFF706FD001B022809D828688001F7D556
:100EA00034E000BFFFF7FCFC001B022802D903203E
:100EB000BDE8F88F28688001F4D427E00128F7D036
:100EC000D9F80000E26900F4800191421CD1226A45
:100ED00000F03F01914217D147F6C071626A0140AC
:100EE000B1EB821F10D1A26A4FF0FF3300F4403102
:100EF00003EB5202B1EB024F06D194F82C1000F034
:100F00007060B0EB016F01D00120D1E70020CFE786
:100F10000438024000004742800E47420070004003
:100F20000000FFFF10B5401EB0F1807F01D301200B
:100F300010BD4FF0E02460610F21601701F064F8EC
:100F40000020A06107202061002010BD70B590F83E
:100F50003C20012A32D0012480F83C40022280F853
:100F60003D2003685A689D6822F070060A68324383
:100F70005A60134B02689A4214D0B2F1804F11D0DC
:100F8000104B9A420ED0104B9A420BD00F4B9A4204
:100F900008D00F4B9A4205D00E4B9A4202D00E4B0E
:100FA0009A4204D1496825F080031943916080F882
:100FB0003D40002180F83C10084670BD022070BD05
:100FC000000001400004004000080040000C004008
:100FD00000040140004001400018004010B504002A
:100FE00003D094F83D0010B107E0012010BD0020AF
:100FF00084F83C00204600F01FF8022084F83D00F1
:10100000211D206800F00EFD012084F8460084F8C0
:101010003E0084F83F0084F8400084F8410084F8E2
:10102000420084F8430084F8440084F8450084F8C2
:101030003D00002010BD000008B500680649884248
:1010400008D10648016841F008010160006800F01D
:101050000800009008BD0000000C0040403802402D
:1010600070B5044690F83C000025012817D00126F1
:1010700084F83C60022084F83D002068826822F0F9
:10108000770222F47F4282600868502838D00DDC55
:1010900020284FD005DC90B3102811D14AE002205F
:1010A00070BD302846D040280AD13BE060282FD0C0
:1010B00070280DD0B0F5805F03D0B0F5005F12D07E
:1010C000012584F83D60002084F83C00284670BD6E
:1010D000CB68D1E90121206800F015FD2068816806
:1010E00041F0770109E0CB68D1E90121206800F0E7
:1010F0000AFD2068816841F480418160E1E719E0E0
:10110000CA684968206800F0D3FD5021206806E0D5
:10111000CA684968206800F0DCFD6021206800F0A2
:10112000FCFCCEE7CA684968206800F0C1FD402198
:101130002068F4E7226801461046F0E710B586B053
:10114000044614216846FFF718F90E4920688842C2
:1011500015D10D480021026842F08002026000684B
:1011600000F0800005904FF4E05000900220CDE99F
:1011700001010390049069460448FFF777FA06B02E
:1011800010BD0000000C004030380240001C02403E
:1011900070B5044690F83C0000260D4601280FD09B
:1011A000012084F83C006AB1042A1DD0082A2FD0FF
:1011B0000C2A3FD00126002084F83C00304670BD48
:1011C000022070BD206800F0B1FC2068816941F008
:1011D000080181612068816921F004018161206832
:1011E00081692A69114311E0206800F0CFFC206872
:1011F000816941F4006181612068816921F4806125
:101200008161206881692A6941EA02218161D2E70E
:10121000206800F0F1FC2068C16941F00801C1615B
:101220002068C16921F00401C1612068C1692A698F
:10123000114311E0206800F013FD2068C16941F4FA
:101240000061C1612068C16921F48061C1612068C9
:10125000C1692A6941EA0221C161ACE710B5040005
:1012600003D094F83D0010B107E0012010BD00202C
:1012700084F83C00204600F01EF8022084F83D006F
:10128000211D206800F0CEFB012084F8460084F880
:101290003E0084F83F0084F8400084F8410084F860
:1012A000420084F8430084F8440084F8450084F840
:1012B0003D00002010BD704710B50446022249B120
:1012C00004290ED0082913D094F84100012816D023
:1012D000012010BD94F83E000128F9D184F83E2089
:1012E0000FE094F83F000128F2D184F83F2008E095
:1012F00094F840000128EBD184F8402001E084F804
:1013000041200122206800F0F1FB16492068164AAE
:10131000884201D0904203D1436C43F400434364BC
:101320002068884213D0B0F1804F10D00F49884216
:101330000DD00F4988420AD00E49884207D090420A
:1013400005D00D49884202D00C49884204D18168F9
:1013500001F00701062903D0016841F00101016095
:10136000002010BD000001400004014000040040C6
:1013700000080040000C0040004001400018004000
:1013800070477047F8B5016804460868CA684B6939
:1013900010F00F0F4FF0000559D003F0010602F4D2
:1013A0009077374365D0C10705D0D10503D5216CAF
:1013B00041F001012164410705D5D90703D0216C13
:1013C00041F002012164810705D5D90703D0216CC2
:1013D00041F004012164010707D502F020013143E7
:1013E00003D0216C41F008012164216C00293AD01E
:1013F000800604D5900602D5204600F0ABFC20689C
:101400004069216CC0F38010090700D460B3204606
:1014100000F079FC20684069400621D5206814302E
:1014200050E8001F21F0400140E80012002AF5D1E9
:10143000A06BA8B16C490165A06BFFF7F2F800281A
:1014400011D0A06B016D01B0BDE8F04008478306E4
:101450000FD593060DD52046BDE8F84000F07ABCC4
:101460002046FFF78EFFF8BD2046FFF78AFF256470
:10147000F8BD266B2023012E79D1C60677D5D60676
:1014800075D50868486800904869400640D5A16B4A
:10149000086840680004000CEAD0A28D8242E7D9B7
:1014A000E085C869B0F5807F2DD020680C3050E809
:1014B000001F21F4807140E80012002AF5D1206855
:1014C000143050E8001F21F0010140E80012002A0A
:1014D000F5D12068143050E8001F21F0400140E8A9
:1014E0000012002AF5D184F83E30256320680C30C4
:1014F00050E8001F21F0100140E80012002AF5D149
:10150000A06BFFF745F8A08DE18D401A81B229E06C
:10151000A08DE18D401A81B2E08D0028A8D000296D
:10152000A6D020680C3050E8002F22F4907240E8DA
:101530000026002EF5D12068143050E8002F22F04C
:10154000010240E80026002EF5D184F83E302563E4
:1015500020680C3050E8002F22F0100240E80023F1
:10156000002BF5D12046FFF70BFFF8BDFFE705067E
:101570002BD5150629D594F83D002128F5D1A06872
:10158000B0F5805F01D12069B0B1206A411C2162B1
:10159000216800784860E08C401E0004000CE08464
:1015A000E3D12068C16821F08001C1602068C16872
:1015B00041F04001C160D8E7206A0088C0F308000C
:1015C0004860206A801C2062E5E74006CDD55006C1
:1015D000CBD5CA68204622F04002CA6084F83D306C
:1015E00000F01CF9C1E70000F71C000870B504000A
:1015F00004D094F83D00002510B106E0012070BD34
:1016000084F83C50204600F023F8242084F83D0064
:101610002068C16821F40051C160204600F0FAFB47
:101620002068016921F4904101612068416921F03D
:101630002A0141612068C16841F40051C1602564FC
:10164000202084F83D0084F83E00002070BD00009A
:1016500010B586B0044614216846FEF78EFE184980
:101660002068884229D117480021026842F0100200
:101670000260006800F010000590124814380268FB
:1016800042F001020260006800F0010005904FF492
:10169000C06000900220CDE90101032003900720E3
:1016A000049069460848FEF7E1FF00221146252014
:1016B000FFF764F92520FFF753F906B010BD0000CD
:1016C00000100140443802400000024090F83E30D3
:1016D000202B0ED159B152B190F83C30012B08D0DB
:1016E000012380F83C300023036300F019BC012083
:1016F000704702207047000010B500680849884212
:101700000CD10848002201781046FEF7D7FEBDE84C
:101710001040012203490448FFF7D8BF10BD000064
:101720000010014000000020840000202DE9F84353
:10173000044690F83D001F4616460D4620284CD121
:10174000C5B1BEB194F83C00012846D0012084F810
:101750003C004FF00008C4F84080212084F83D0090
:10176000FFF79EF8A6848146E684A068B0F5805F06
:1017700003D004E00120BDE8F883206928B12E469B
:101780005FF0000584F83C800EE00026FAE7802137
:10179000204600F0E2FBA0B9AEB116F8010B2168BB
:1017A0004860E08C401EE084E08C4B464FF0000225
:1017B00000970028EBD14FF04001204600F0CDFB10
:1017C00030B10320D7E735F8020BC0F30800E6E795
:1017D000202084F83D000020CDE70220CBE790F8E0
:1017E0003D30202B18D1A9B1A2B190F83C30012B8B
:1017F00012D001628284C28400210164212280F817
:101800003D2080F83C100068C16841F08001C16053
:1018100000207047012070470220704710B5006813
:10182000084988420CD10848FEF768FE002807D016
:1018300005490122BDE81040091D0448FFF7CFBF4C
:1018400010BD000000100140300000208400002086
:10185000FEE70000094808B5016841F08001016019
:10186000016801F080010091016841F0010101600F
:10187000006800F00100009008BD00003038024010
:1018800010B58EB000240794089409940A940B9420
:101890001C2168460C94FEF770FD2748254901601D
:1018A0005321C0E9011440F2E731C0E90314846117
:1018B000FFF794FB08B1FEF7D4FD4FF4805007907A
:1018C00007A91D48FFF7CCFB08B1FEF7CAFD1A486F
:1018D000FFF7C4FC08B1FEF7C4FD0B940BA9164832
:1018E0000C94FFF733FB08B1FEF7BBFD6020CDE998
:1018F0000004022002900022694604940E48FFF77B
:1019000047FC08B1FEF7ADFD042269460A48FFF71F
:101910003FFC08B1FEF7A5FD082269460648FFF71F
:1019200037FC08B1FEF79DFD0348FFF707FC0EB03A
:1019300010BD0000000C00403C0000200C4810B519
:101940000A4901604FF4E1314160002181600C22BD
:10195000C160C0E904128161C161FFF747FE002840
:1019600003D0BDE81040FEF77CBD10BD0010014063
:1019700084000020FEE7FEE770477047FEF796BF41
:1019800030B593B030216846FEF7F7FC14210CA85F
:10199000FEF7F3FC1D480025016841F0805101600D
:1019A000006800F0805011901948016841F44041EE
:1019B00001600068022400F440401190012003906F
:1019C00010200490009406940820CDE90750A82028
:1019D000CDE9090404200B906846FFF7EDF808B143
:1019E00072B6FEE70CA90F2081E831004FF4A05039
:1019F0000F904FF48050109005210CA8FEF7F0FFD7
:101A0000002801D072B6FEE713B030BD4038024066
:101A1000007000400248016841F4700101607047A5
:101A200088ED00E0F0B50268254C264D264E274F84
:101A3000274B4FF0804CA04209D0604507D0A84208
:101A400005D0B04203D0B84201D0984204D122F070
:101A5000700E4A6842EA0E02A0421BD0604519D0BF
:101A6000A84217D0B04215D0B84213D0984211D036
:101A7000184DA8420ED0184DA8420BD0174DA842C1
:101A800008D0174DA84205D0164DA84202D0164DD9
:101A9000A84203D122F44075CA682A434D6922F056
:101AA00080022A4302608A68C2620A688262A04297
:101AB00001D0984201D10969016301214161F0BD62
:101AC000000001400004004000080040000C0040FD
:101AD0000004014000400140004401400048014032
:101AE00000180040001C00400020004010B501F02C
:101AF0001F030121046A99408C430462016A9A40E1
:101B00001143016210BD10B5846842EA032224F437
:101B10007F440A432243826010BD826822F0700233
:101B20000A4342F00701816070470000F0B5026A85
:101B300022F001020262036A42688469124E24F0B4
:101B400073050C682C4323F002058B682B430D4D65
:101B5000A84201D0B04205D123F00807CB683B432F
:101B600023F00403A84201D0B04205D14D6922F40C
:101B7000407215438A692A4342608461496841631F
:101B80000362F0BD0000014000040140F0B5026AAC
:101B900022F010020262026A436884690D6824F42C
:101BA000E64444EA05248D6822F0200242EA051248
:101BB0000F4D104EA84201D0B04206D1CF6822F09E
:101BC000800242EA071222F04002A84201D0B0424D
:101BD00007D14D6923F4406343EA85038D6943EAE5
:101BE000850343608461496881630262F0BD00003F
:101BF0000000014000040140F0B5026A22F4807246
:101C00000262026A4368C46922F4007224F0730518
:101C10000C68124E2C438D6842EA05220E4DA842F4
:101C200001D0B04206D1CF6822F4006242EA072216
:101C300022F48062A84201D0B04207D14D6923F45A
:101C4000405343EA05138D6943EA05134360C461B9
:101C50004968C1630262F0BD000001400004014018
:101C600030B5026A22F480520262046A4268C36993
:101C70000D6823F4E64343EA05238D6824F40054F9
:101C800044EA0534084DA84202D0084DA84204D1C8
:101C90004D6922F4804242EA85124260C36149687C
:101CA0000164046230BD00000000014000040140F6
:101CB00010B5036A046A24F001040462846924F004
:101CC000F00444EA021423F00A020A438461026227
:101CD00010BD10B5036A23F0100303628369046A20
:101CE00023F4704343EA023224F0A00343EA0111D3
:101CF0008261016210BD10B5806B0021C185C18475
:101D0000FFF73FFB10BD01680C3151E8002F22F4B2
:101D1000907241E80023002BF5D10168143151E89D
:101D2000002F22F0010241E80023002BF5D1016BC6
:101D3000012909D101680C3151E8002F22F010026D
:101D400041E80023002BF5D1202180F83E1000212E
:101D50000163704708B590F83E10222901D0022097
:101D600008BD82684FF480539A4201D1016921B1C4
:101D7000816A9A421BD04AB10AE00268816A5268BD
:101D8000C2F308020A80816A891C08E0026972B104
:101D90000268526802F07F020A70816A491C8162FF
:101DA000C18D491E0904090CC18503D019E00268E0
:101DB0005268F1E70168CA6822F02002CA6001682F
:101DC000CA6822F48072CA6001684A6922F001027E
:101DD0004A61202180F83E10016B012903D0FFF7F2
:101DE0008BFC002008BD0021016301680C3151E823
:101DF000002F22F0100241E80023002BF5D10168EA
:101E00000A68D20602D50A6849680091818DFFF7F9
:101E1000B7FAE6E770B5044600680169E26821F4A4
:101E20004051114301612169A068E2690843616979
:101E3000114308432168CA6849F20C639A4302437C
:101E4000CA6020684169A26921F44071114341616F
:101E500031492068884202D03049884202D1FEF7D9
:101E600069FE01E0FEF756FEE269002319216425B0
:101E70003226B2F5004F626828D0A0FB0101930F13
:101E80009200FEF703FA0146B0FBF5F06FF018027E
:101E9000504301EB800006EB0010B0FBF5F000F0C2
:101EA000F002B1FBF5F002EB0012B1FBF5F06FF0C0
:101EB0001803584301EB800006EB0010B0FBF5F06F
:101EC00000F00F0021681044886070BDA0FB010184
:101ED00092185B41FEF7DAF90146B0FBF5F002011A
:101EE000B1FBF5F06FF01803584301EB800006EBEF
:101EF000C000B0FBF5F000F0F80002EB4002B1FBCF
:101F0000F5F0584301EB800006EBC000B0FBF5F0A4
:101F100000F00700D6E70000001001400014014067
:101F200081628285C28500210164222280F83E20E0
:101F300080F83C10016921B10168CA6842F48072DE
:101F4000CA6001684A6942F001024A610068C168DA
:101F500041F02001C160002070472DE9F041984612
:101F600017460E460446069D27E0681C25D02DB175
:101F7000FEF796FCA0EB0800A8421ED920680C30A2
:101F800050E8001F21F4D07140E80012002AF5D17A
:101F90002068143050E8001F21F0010140E80012D1
:101FA000002AF5D1202084F83D0084F83E0000206E
:101FB00084F83C000320BDE8F0812068006836EA20
:101FC000000004D00020B842CFD00020F3E7012069
:101FD000F9E700000148FFF7D5B9000084000020B0
:101FE000FEE74100080218BF04200A0E18BF40F0A7
:101FF00001004FF07F4232EA010108BF40F00200C9
:10200000012808BF052070470907090E002804DBD6
:1020100000F1E02080F80014704700F00F0000F19C
:10202000E02080F8141D704700B510EE101A2DED59
:10203000028B81B0524A6846B2EB410F2ED94FF065
:10204000E640B0EB410F94BF00204FF0FF3000900E
:102050000098B0EE408A00286ADB10F0010F4BD0E8
:1020600068EE080A9FED471A9FED470A00EE810AC5
:102070009FED461A10F0020F00EE801AB7EE000A2C
:1020800000EE810A02BF01B0BDEC028B00BD00BFB3
:1020900001B0B1EE400ABDEC028B00BD3C4B21F01B
:1020A0000042934241D911F0004FDFED3A0A20EE91
:1020B000201ADFED390A19BF31EE601A71EE200ADD
:1020C00031EE201A71EE600ABDEEE01A11EE100A30
:1020D0009FED321A00F0030000EEC10A9FED301AA6
:1020E000009000EEC10A9FED2F1A00EEC10A9FED8D
:1020F0002E1A00EEC10AABE728EE080A9FED2B1A54
:10210000DFED2B0A10F0020F40EE410A9FED291A75
:1021100000EE201A61EE000AB0EE480A08EE200A2E
:10212000B6D101B0BDEC028B00BD00F059F88FE7CD
:1021300018EE100A4000B0F17F4F0DD218EE100AD1
:10214000FFF74FFF042808BF00F042F8B0EE480A3E
:1021500001B0BDEC028B00BD09D10120FEF73CF9B6
:1021600001B0BDEC028B5DF804EB00F029B801B0C2
:10217000B0EE480ABDEC028B5DF804EB00F01CB831
:10218000B61F927EB93AB2BACA9F2A3DDDFFFFBEA2
:10219000490E494683F9223F0000004B0000C93F29
:1021A00000A0FD390020A2331A61342C336D4C3964
:1021B000DA82083CA0AA2ABE30EE000A704700006E
:1021C000DFED020A80EEA00A704700000000000068
:1021D0009FED020A20EE000A704700000000001088
:1021E0002DE9F0014FF07F42B2EB410F9FBF4FF05E
:1021F000FF310160BDE8F00170474FF0004242EA54
:102200000123C1F3C752783A551112F01F0C434C09
:10221000CCF120067C44C1F3C752A2F178024FEA08
:10222000621204EB820254F8254008BFD2E901563D
:1022300012D0556804FA0CF425FA06F73C43976867
:1022400005FA0CF527FA06F8D26807FA0CFCF240FA
:1022500045EA08054CEA0206A4FB034CA5FB035221
:10226000A6FB03631D449D4234BF012600261319BB
:10227000334416B1934202D903E0934201D20122C2
:1022800000E00022624402F1200C9206DC0C42EADB
:10229000443200EE102A5B03DFED210AF8EEC01A8B
:1022A00000EE103A4FEA9C1C11F0004FB8EE400AC5
:1022B000C0F800C020EE201A00EE105ADFED190A17
:1022C000B8EE400A20EE200A71EE810A70EE800A14
:1022D00010EE902A02F500626FF30B0200EE902AD6
:1022E00070EEE11A31EEC11ADFED101A30EE411A2C
:1022F0009FED0D0A20EE800A01EE210A9FED0C1AD7
:1023000000EE810A04BFBDE8F0017047CCF18051B6
:102310000160BDE8F001B1EE400A704740030000E3
:10232000000000360000802C22AAFD29DB0FC92FF7
:102330000000C92F2DED028BFEF7C0FAFFF720FB3E
:10234000FFF788FAFFF7FAFAFFF79AFA01226949CC
:102350006948FFF7BBF96423012268A16648FFF7CB
:10236000E5F900216648FEF7A7FF04216448FEF75F
:10237000A3FF08216248FEF79FFF0024DFF884B125
:10238000DFF87CA14FF00A092646274625469FED37
:102390005E8A0120FEF758F9FEF784F840BB5948E1
:1023A000FEF762F89BF8040080B1FF280ED081464A
:1023B000002221461046FEF7CBF80022494610467F
:1023C000FEF7C6F8FEF7B8F838B111E0A042EFD03A
:1023D0000026044637463546EAE74A480C30FEF701
:1023E0008DF828B14749012210314348FFF7F7F92A
:1023F00044B1FF2CCDD141F28831B1FBF9F06D1C15
:1024000050B32AE0761C00EE106AF8EE400A00EEA7
:10241000109AB8EE400A20EE800ADFED3C0A20EE6A
:10242000200AFFF701FEF7EE000ADAF8002030EE8E
:10243000200AF6EE000A20EE200A20EE080ABCEE82
:10244000C00A10EE100A80B25063DAF800209063E0
:10245000DAF80010C8639CE70120854206D3002506
:102460000A207F1CB7FBF0F100FB1177284907EB2E
:102470004702DAF80080885C114400EE100A4A78BE
:102480008978B8EE401A9FED230AC1EE000A60EE8B
:10249000880AFCEEE00A10EE900A00EE902A80B264
:1024A000B8EE601AC1EE000A60EE880AFCEEE00A9F
:1024B00010EE902A00EE901A93B2F8EE600A80EEC9
:1024C000801A21EE080ABCEEC00A10EE101A8AB279
:1024D0000321B0FBF1FCC8F834C0B3FBF1F3DAF828
:1024E00000C0CCF83830B2FBF1F1DAF80000C1637B
:1024F0004FE700000000002084000020BB00000027
:102500003C0000202400002000C079440AD7A33BEF
:102510002225000800007F434FF04070E1EE100AD2
:10252000704719CAAD8CC7B5A0EEE1BEE7E9BEEDB4
:10253000C7D6D5B7D1BA74E6CEACECAD9EF4606C1C
:102540000000000000000000010203040607080963
:102550000000000001020304000000006E83F9A2E5
:102560002915444ED15727FCC0DD34F5999562DB1F
:102570004190433CAB6351FE9825000800000020C9
:1025800024000000E8010008BC2500082400002009
:1025900064280000040200080000000000000000A1
:1025A000000000000000000000000000010000002A
:0C25B00010000000000000000024F400F7
:04000005080001AD41
:00000001FF
