:020000040800F2
:10000000300800204D020008011D0008491B0008AF
:10001000FD1C0008F903000875210008000000001D
:10002000000000000000000000000000491D000862
:10003000FD03000800000000051D00084D1D00081C
:1000400067020008670200086702000867020008EC
:100050006702000867020008010400086702000840
:1000600067020008670200086702000867020008CC
:1000700067020008670200086702000867020008BC
:1000800067020008670200086702000867020008AC
:10009000670200086702000867020008670200089C
:1000A000670200086702000867020008670200088C
:1000B000670200086702000867020008670200087C
:1000C000670200086702000867020008670200086C
:1000D000670200086921000867020008670200083B
:1000E00009040008670200086702000867020008A8
:1000F000670200086702000867020008670200083C
:10010000670200086702000867020008670200082B
:100110006702000867020008111E00081D1E000883
:10012000670200086702000867020008670200080B
:1001300067020008670200086702000867020008FB
:1001400067020008670200086702000867020008EB
:1001500067020008670200086702000867020008DB
:1001600067020008670200086702000867020008CB
:10017000670200086702000867020008000000002C
:1001800067020008670200086702000867020008AB
:10019000670200086702000867020008670200089B
:1001A00067020008670200086702000800F002F812
:1001B00000F03CF80AA090E8000C82448344AAF1C5
:1001C0000107DA4501D100F031F8AFF2090EBAE8C3
:1001D0000F0013F0010F18BFFB1A43F0010318477B
:1001E000E020000000210000103A24BF78C878C148
:1001F000FAD8520724BF30C830C144BF04680C602D
:10020000704700000023002400250026103A28BF74
:1002100078C1FBD8520728BF30C148BF0B60704778
:100220001FB502F033F81FBD10B510BD00F0A9F8DE
:100230001146FFF7F5FF01F09FFF00F0C7F803B488
:10024000FFF7F2FF03BC00F0CFF800000948804739
:1002500009480047FEE7FEE7FEE7FEE7FEE7FEE7A8
:10026000FEE7FEE7FEE7FEE704480549054A064BC0
:1002700070470000FD1D0008AD010008300200209D
:1002800030080020300400203004002053EA020C23
:1002900000F069802DE9F04B4FF00006002B1FBFE6
:1002A000B3FA83F503FA05F424FA05F65E4012BFAB
:1002B0001643B2FA82F502FA05F4C5F120051EBF15
:1002C00022FA05FC44EA0C04203556EA044C4FEAB5
:1002D000144418BF641C4FF000084FF0000990420E
:1002E00071EB030C39D3002919BFB1FA81F701FA78
:1002F00007F6B0FA80F700FA07F6C7F120071EBF2D
:1003000020FA07FC46EA0C062037B6FBF4FCA7EB04
:100310000507103F07F01F0BCBF120062CFA06F65D
:100320000CFA0BFB44BFB3460026202FA4BF5E4649
:100330004FF0000B5BEA060C08BF4FF0010B19EB06
:100340000B0948EB0608ABFB027C06FB02CC0BFB5F
:1003500003CCC01B71EB0C01C1E70B4602464146C2
:100360004846BDE8F08B13B5084318BF4FF0FF3087
:100370000146AFF30080BDE81C40704770477047EE
:100380007047754600F02CF8AE46050069465346A6
:1003900020F00700854618B020B5FFF765FFBDE8DF
:1003A00020404FF000064FF000074FF000084FF0DC
:1003B000000BAC46ACE8C009ACE8C009ACE8C00929
:1003C000ACE8C00921F007018D46704710B504461E
:1003D000AFF300802046BDE81040FFF730BF0000BB
:1003E000004870471000002001491820ABBEFEE70E
:1003F0002600020070470000FEE700007047000082
:10040000012000F0E5B800004FF4005000F0E0B823
:1004100072B600BFFEE7000080B540F27001C2F284
:100420000001D1E900239A4204BF002080BD40F2C0
:10043000900C02EB4203C2F2000C5CF823E00CEBE0
:100440008303C0F800E0D3E901C3C0E901C3B2F1FE
:100450000F0018BF501C0860012080BD70B5866D6C
:10046000044600F0B3F994F8351002292ED1054660
:100470002068216C026822F016020260426922F0B4
:100480008002426109B9A16C19B1016821F008012B
:100490000160016821F0010101600068C00708D017
:1004A00000F094F9401B052818D820680068C007A0
:1004B000F6D1E06D3F2101FA00F0B060012084F830
:1004C00035000020002184F8341070BD8020606564
:1004D0000120002184F8341070BD00BF2020606529
:1004E000032084F83500002184F8341070BD00002A
:1004F00090F83510022909D1052180F835100068DF
:10050000016821F0010101600020704780214165F0
:100510000120704770B5054600F058F940F27806A2
:10052000C2F2000671680446401A15284FD3B5F58B
:10053000005F746010D0012D49D10020C4F2020088
:10054000012100F02FF9012818D1022001210022F9
:10055000BDE8704001F0D8BB0020C4F2020000F5F5
:1005600000604FF4005100F01DF9717801281BD193
:1005700069BB01207070C6E9034470BD03200121EE
:100580000022012501F0C0FB3078C8B1B068201A04
:1005900080087C2818D8042001210022002401F0C2
:1005A000B3FB347070BD00BF002908BF70BD0023CD
:1005B0000320022100227370BDE8704001F0A4BB4B
:1005C0003570B46070BD00BF01203070B46070BD84
:1005D00043F61441C4F201010A68024214BF0860E4
:1005E0007047FFF797BF00002DE9F04F82B000F190
:1005F0003E4242F2004502F1FF77C4F202050A22B0
:100600004FEAB726A84208BF0922092E38BF4FEA91
:10061000B7224FF0010A002400274FF00008009293
:1006200008E000BF023708F10108202F04F104049C
:1006300000F0B4800E680AFA08F916EA090FF1D042
:10064000D1F804A00AF0030BABF10106012E17D874
:100650000322866802FA07FECA6826EA0E06BA4036
:10066000324382604268CAF3001522EA090205FAA1
:1006700008F54FEA480C6FEA0E062A4342600BE089
:100680000322BA40D643BBF1030FBC4604D1BC469B
:100690004FF0030B22E000BFC2688D68324005FABC
:1006A0000CF52A43BBF1020FC26017D16FF00302B1
:1006B00002EA5802024404F01C030F25D2F820E09D
:1006C00005FA03FA0D692EEA0A0E05FA03F343EA66
:1006D0000E031362D1F804A00AF0030B02680BFAB0
:1006E0000CF332401A431AF4403F4FF0010A026003
:1006F00098D0002243F644030192C4F202031A6820
:1007000043F6004E42F480421A601A68C4F2010EA9
:1007100002F480420192019A28F003024FF6084C3D
:100720007244CFF6FF7C52F80C3004F00C060F2513
:10073000B540AB43009D05FA06F6334342F80C3052
:10074000DEF808204B6842EA090643F60C4CDD024D
:1007500058BF22EA0906CEF80860C4F2010CDCF8A2
:1007600000209D0242EA090658BF22EA0906CCF899
:100770000060DEF804209D0342EA090658BF22EA21
:100780000906CEF80460DEF80020DB0342EA090621
:1007900058BF22EA0906CEF8006043E702B0BDE880
:1007A000F08F00000069084018BF0120704700006A
:1007B000426902EA0103914341EA034181617047C2
:1007C000002A08BF090481617047000040F2282018
:1007D000C2F200000068704740F2000040F2282199
:1007E000C2F20000C2F2000100780A6810440860FA
:1007F0007047000080B543F60040C4F20200016873
:1008000041F400710160016841F480610160016898
:1008100041F480710160032000F084F8002000F0B2
:1008200005F800F027F8002080BD000070B540F208
:100830000006C2F2000640F208013278C2F200015E
:100840004FF47A730968B3FBF2F20446B1FBF2F19C
:10085000084600F041FB0F2C4FF0010508D838B9CD
:100860004FF0FF3021460022002500F02FF8746081
:10087000284670BD82B0002043F640010190C4F2CA
:1008800002014A6842F480424A604A6802F48042A7
:100890000192019A0090086840F080500860086852
:1008A00000F080500090009802B07047002848BFC8
:1008B000704700F01F01012202FA01F14EF200120E
:1008C0004009CEF2000242F82010704710B54EF6F3
:1008D0000C5CCEF2000CDCF80030C3F3022E8EF07C
:1008E0000704042C28BF0424BEF103034FF0FF3E8D
:1008F0000EFA04F438BF0023A14399400EFA03F323
:100900009A4300F00F03043B1143634409010C3385
:1009100000F16042B0F1FF3FC8BF02F564431970B7
:1009200010BD00004EF60C51CEF200010A684FF6E1
:10093000FF031A4060F30A2242F0806040F0FD702D
:10094000086070472DE9F041002800F08B8043F6E5
:100950000808C4F202080446D8F8F8030D4600F06F
:100960000F00884207D288F8F853D8F8F80300F04F
:100970000F00A84276D12068810717D5410705D519
:10098000D8F8001041F4E051C8F80010010705D56F
:10099000D8F8001041F46041C8F80010D8F80010F1
:1009A000A26821F0F0011143C8F80010C0073FD140
:1009B000D8F8F80300F00F00A84207D988F8F853D8
:1009C000D8F8F80300F00F00A8424BD12068410787
:1009D00007D5D8F80010E26821F4E0511143C8F8B7
:1009E0000010000708D5D8F80000216920F4604005
:1009F00040EAC100C8F8000000F07CF8D8F8001008
:100A000042F2A622C1F30311C0F60002515C40F28B
:100A1000080220FA01F140F20400C2F2000000686E
:100A2000C2F200021160FFF701FF0020BDE8F08173
:100A30006068811E022907D258F8081C89015CBF32
:100A40000120BDE8F08111E0012807D158F8081C09
:100A500089035CBF0120BDE8F08107E058F8081C5D
:100A6000890703D40120BDE8F08100BFD8F8001049
:100A700021F003010843C8F80000FFF7A7FE06466F
:100A800041F28837D8F80000616800F00C00B0EB44
:100A9000810F8DD0FFF79AFE801BB842F2D9032058
:100AA000BDE8F08140F2080043F60801C2F2000000
:100AB000C4F202010068096842F2B622C1F3822141
:100AC000C0F60002515CC8407047000040F20800C8
:100AD00043F60801C2F20000C4F20201006809688E
:100AE00042F2B622C1F34231C0F60002515CC84066
:100AF0007047000010B543F60404C4F202046068B5
:100B000000F00C0008280BD0042819BF42F2004066
:100B1000C0F2F40047F64000C0F27D1010BD00BFE7
:100B2000206821682368490247F64001C0F27D1120
:100B300000F03F02C3F388105CBF42F20041C0F2F4
:100B4000F401A1FB00010023FFF7A0FB21680222B2
:100B5000C1F3014102EB4101B0FBF1F010BD000017
:100B60002DE9F04182B000286AD00446007843F6AF
:100B70000006C007C4F202060BD0B06800F00C00FB
:100B8000042840F0A1803068800302D56068002806
:100B900056D0207880071AD5B06810F00C0F09D015
:100BA000B06800F00C00082840F0A880706840028F
:100BB00000F1A4803068800702D5E06801283FD1A9
:100BC0003068216920F0F80040EAC10030602078E8
:100BD000000739D4207840074ED4A5695DB3B068CA
:100BE00000F00C00082840F0BD80012D28D070686E
:100BF000E16900F480028A4222D1216A00F03F02BA
:100C00008A421DD147F6C071626A0140B1EB821F72
:100C100016D1A26A0023CFF6FF7303EBC23200F4B1
:100C200040316FF30F0291420AD1E16A00F0706027
:100C3000B0EB016F04D1002002B0BDE8F08100BF2D
:100C4000012002B0BDE8F0816069002840F2000098
:100C5000C4F2472076D00121C0F8801EFFF7B6FD10
:100C6000054600BF706F8007B4D4FFF7AFFD401B8F
:100C70000228F7D9DDE000BF306C10F080580AD1AF
:100C800000200190306C40F080503064306C00F0F7
:100C900080500190019847F20007C4F200073868BD
:100CA000C00541D4386840F480703860FFF78EFD8D
:100CB000054600BF3868C00536D4FFF787FD401BE6
:100CC0000228F7D9B5E000BFB06800F00C00082892
:100CD00003D1706840023FF556AF6068B0F5803FC1
:100CE00007D0B0F5A02F40F08D80306840F4802010
:100CF0003060306840F4803030608DE0E06800287B
:100D000052D00020C4F2472001210160FFF75EFDB0
:100D1000054600BF306880073FF552AFFFF756FD2C
:100D2000401B0228F6D984E0A068012805D00528D8
:100D30004ED1306F40F004003067306F40F001005A
:100D400030674FE00021C0F8801EFFF73FFD0546E9
:100D5000706F80077FF53EAFFFF738FD401B02281C
:100D6000F6D966E00027C4F2472700203866FFF76F
:100D70002DFD022D05460BD1306880015ED5FFF7B1
:100D800025FD401B02284FF00300F5D954E700BFB2
:100D9000306880017FF54FAFFFF718FD401B022838
:100DA0004FF00300F4D947E70020C4F247200021A8
:100DB0000160FFF70BFD0546306880077FF507AF40
:100DC000FFF704FD401B02284FF00300F4D933E77E
:100DD000316F002821F001013167316F21F00401EA
:100DE00031674DD0FFF7F2FC054641F2883700BF6E
:100DF000306F800756D4FFF7E9FC401BB842F7D9A3
:100E000017E000BF3168002821F48031316031687B
:100E100021F4802131604FD0FFF7D8FC054600BF98
:100E2000306880033FF5B5AEFFF7D0FC401B642867
:100E3000F6D9032002B0BDE8F08100BF04F11C0523
:100E40002FCD08430021CFF6FF7140EA821001EB5D
:100E5000C3316FF30F0140EA056008437060012061
:100E60003866FFF7B3FC0446306880013FF5E3AE17
:100E7000FFF7ACFC001B02284FF00300F4D9DBE6BF
:100E8000FFF7A4FC054641F2883700BF306F8007AA
:100E900008D5FFF79BFC401BB8424FF00300F5D983
:100EA000CAE600BFB8F1000F7FF497AE306C20F0B7
:100EB0008050306491E600BFFFF788FC054600BF14
:100EC000306880037FF565AEFFF780FC401B642827
:100ED0004FF00300F4D9AFE6411E0020B0EB116FD4
:100EE0001CBF012070474EF21002CEF2000251608A
:100EF0004EF62351CEF20001F0230B7007219060D3
:100F000011607047704700007047000010B590F8FE
:100F10003C20012A4FF0020251D080F83D200268A7
:100F2000D2F804E0D2F808C00C682EF07003234316
:100F300041F2FF74C4F20004A24253600EDC40F29E
:100F4000FF73C4F200039A4216DCB2F1804F2BD03B
:100F500040F20043C4F2000324E000BF40F2FF333C
:100F6000C4F201039A4213DC41F60003C4F2000309
:100F70009A4219D0002313E040F60003C4F20003A4
:100F80009A4211D040F60043C4F200030AE000BFC9
:100F900044F20003C4F201039A4205D040F2004338
:100FA000C4F201039A4204D149682CF0800319432A
:100FB00091600121002280F83D1080F83C2010460D
:100FC00010BD0000002804BF0120704710B5044682
:100FD00090F83D0028B9002084F83C00204600F03D
:100FE0001FF8022084F83D002068211D00F01CFF3E
:100FF000012084F8460084F83E0084F83F0084F81D
:10100000400084F8410084F8420084F8430084F8EA
:10101000440084F8450084F83D00002010BD000025
:1010200010B582B0006841F20041C4F2000188426C
:101030001AD041F20001C4F20001884230D10020F0
:10104000019043F64000C4F202000168002241F022
:10105000100101600068002100F01000019001986B
:101060003620362413E000BF0020009043F64000F5
:10107000C4F202000168002241F020010160006812
:10108000012100F020000090009837203724FFF75E
:101090001DFC204602B0BDE81040FFF707BC00BFB2
:1010A00002B010BD90F83D1001291CBF012070470F
:1010B000022180F83D10006841F2FF72C168C4F25D
:1010C0000002904241F00101C1600DDC40F2FF716D
:1010D000C4F20001884215DCB0F1804F2AD040F202
:1010E0000041C4F2000123E040F2FF31C4F20101EB
:1010F000884213DC41F60001C4F20001884219D095
:10110000002113E040F60001C4F20001884211D032
:1011100040F60041C4F200010AE000BF44F20001C1
:10112000C4F20101884205D040F20041C4F201013D
:10113000884206D1816801F00701062904BF00201A
:101140007047016841F00101016000207047000014
:1011500070470000B0B504460068C168026902EA41
:101160000105A90720D4680734D428074AD4E80623
:1011700060D4E80777D1280600F17F80680606D59D
:1011800020686FF040010161204600F0B9F8A80620
:1011900058BFB0BD21686FF0200220460A61BDE84B
:1011A000B040FFF7B1BE00BF6FF002010161012145
:1011B00021778069800703D02046FFF7C9FF05E04B
:1011C000204600F065F8204600F064F80020207703
:1011D0006807CAD520686FF00401016102212177F8
:1011E000806910F4407F03D02046FFF7B1FF05E08F
:1011F000204600F04DF8204600F04CF80020207703
:101200002807B4D520686FF0080101610421217717
:10121000C069800704D02046FFF79AFF06E000BFB0
:10122000204600F035F8204600F034F80020207702
:10123000E8069ED520686FF0100101610821217732
:10124000C06910F4407F03D02046FFF781FF05E01E
:10125000204600F01DF8204600F01CF80020207702
:10126000E8073FF488AF20686FF001010161204674
:1012700000F012F828067FF581AF20686FF080013A
:1012800001612046FFF73EFE68067FF580AF77E7F5
:101290007047000070470000B0B50446006841F296
:1012A0000005C4F20005A84204D005F5806188421B
:1012B0000AD0B0BD01200021002200F025FD2068E9
:1012C00005F580618842F4D1FFF780FA40F2780595
:1012D000C2F2000569780129EBD10446E868201ABA
:1012E000B0F57A7FE5D32869201AFA2838BFB0BD57
:1012F00005200221002200F007FD2C61B0BD000096
:10130000704700007047000070470000B0B582B021
:10131000056804462968EA68686901F02F03202BF4
:1013200002F0200306D12BB1204602B0BDE8B04048
:1013300000F026BE5FEA017C1EBF00F0010E02F441
:10134000907010EB0E002FD1236B02EA0100C10652
:1013500018D5012B16D100200190286801906868EB
:10136000019001986869400628D4A08DE18DE28D36
:10137000002A1CBF411A5FEA014040F0D78102B049
:10138000B0BD00BF010600F1D3804006F7D5E86884
:10139000202120F04000E860204684F8411002B08F
:1013A000BDE8B04000F0CEBBC80718BF12F4807093
:1013B00040F0D280480700F1D580DAE0E06B0168A8
:1013C0004A6893B2002BDAD0A18D8B42D7D2E28546
:1013D000C069B0F5807F00F0A08055E8030F216858
:1013E00020F4807041E80302F2B1206850E8030F56
:1013F000216820F4807041E80302AAB1206850E817
:10140000030F216820F4807041E8030262B1206874
:1014100050E8030F216820F4807041E803021AB1FC
:10142000206850E8030FDAE7206850E8050F2168CC
:1014300020F0010041E80502BAB3206850E8050F2A
:10144000216820F0010041E8050272B3206850E8ED
:10145000050F216820F0010041E805022AB3206849
:1014600050E8050F216820F0010041E80502002A3C
:10147000DAD11AE0206850E8050F216820F040001A
:1014800041E80502DAB1206850E8050F216820F034
:10149000400041E8050292B1206850E8050F21683C
:1014A00020F0400041E805024AB1206850E8050FED
:1014B000216820F0400041E80502002ADAD120200E
:1014C00084F8420000202063206850E8030F216860
:1014D00020F0100041E80302DAB1206850E8030F61
:1014E000216820F0100041E8030292B1206850E822
:1014F000030F216820F0100041E803024AB1206880
:1015000050E8030F216820F0100041E80302002A90
:10151000DAD1E06BFEF7A2FFA18D02206063E08DBF
:10152000081A81B2204602B0BDE8B040FFF7EABE1B
:1015300094F8410021287FF422AFA068B0F5805FC5
:1015400003D12069002800F08981206A411C2162B2
:101550000078686089E100BF606C40F00100606461
:10156000480706D5BEF1000F03D0606C40F00200C2
:101570006064880706D5BEF1000F03D0606C40F0B0
:1015800004006064BCF1000F06D55EEA030003D0DE
:10159000606C40F008006064606C00283FF4EFAEBF
:1015A00002EA0100800603D5204600F0E9FC256828
:1015B0006869616C00F0400001F00801401800F01B
:1015C000AD8055E8030F00BF216820F4907041E81A
:1015D0000302D2B3206850E8030F216820F4907012
:1015E00041E803028AB3206850E8030F216820F421
:1015F000907041E8030242B3206850E8030F21686D
:1016000020F4907041E80302FAB1206850E8030F1B
:10161000DAE700BF206850E8050F216820F00100DC
:1016200041E80502DAB1206850E8050F216820F092
:10163000010041E8050292B1206850E8050F2168D9
:1016400020F0010041E805024AB1206850E8050F8A
:10165000216820F0010041E80502002ADAD1206B60
:10166000012824D1206850E8030F216820F01000E1
:1016700041E80302DAB1206850E8030F216820F046
:10168000100041E8030292B1206850E8030F21687E
:1016900020F0100041E803024AB1206850E8030F2F
:1016A000216820F0100041E80302002ADAD120204E
:1016B00084F842000020206320684169490640F117
:1016C000C78050E8050F216820F0400041E805027E
:1016D000002A00F0AB80206850E8050F216820F058
:1016E000400041E80502002A00F0A080206850E890
:1016F000050F216820F0400041E80502002A00F0B3
:101700009580206850E8050F216820F0400041E8EE
:101710000502002A00F08A802068D2E72046FFF701
:10172000F3FD0020606402B0B0BD00BF55E8030FB8
:10173000226820F4907042E80303D3B3206850E895
:10174000030F226820F4907042E803038BB32068F3
:1017500050E8030F226820F4907042E8030343B37B
:10176000206850E8030F226820F4907042E80303D9
:10177000FBB1206850E8030FDAE700BF206850E8AB
:10178000050F226820F0010042E80503DBB1206864
:1017900050E8050F226820F0010042E8050393B1EC
:1017A000206850E8050F226820F0010042E8050398
:1017B0004BB1206850E8050F226820F0010042E894
:1017C0000503002BDAD1202084F84200002020639A
:1017D000206850E8030F226820F0100042E803035D
:1017E000DBB1206850E8030F226820F0100042E8C7
:1017F000030393B1206850E8030F226820F0100023
:1018000042E803034BB1206850E8030F226820F040
:10181000100042E80303002BDAD1022289B22046ED
:10182000626302B0BDE8B040FFF76CBDE06B78B119
:1018300041F67571C0F600010165FEF759FE0028FA
:101840003FF49DADE06B016D02B0BDE8B0400847CC
:10185000204602B0BDE8B040FFF756BD206A30F820
:10186000021B6FF35F2169602062E08C0138010484
:10187000E0847FF484ADE86820F08000E860E868E8
:1018800040F04000E86002B0B0BD0000002804BF96
:101890000120704710B5044690F8410028B9002097
:1018A00084F84000204600F021F8242084F841000C
:1018B0002068C16821F40051C160204600F0E2FBBD
:1018C0002068016921F490410161416921F02A01F8
:1018D0004161C16841F40051C16000202021606471
:1018E00084F8411084F84210606310BD80B586B062
:1018F000016841F20000C4F20100814202D006B04A
:1019000080BD00BF002143F630020191C4F2020203
:10191000536900F5704043F010035361536903F0BD
:1019200010030193019B0191136843F001031360BD
:10193000126802F001020192019A4FF4C062019212
:101940000222CDE90221032104910721059101A979
:10195000FEF74AFE252000210022FEF7B7FF2520D2
:10196000FEF7A4FF06B080BD90F84230202B1CBFCC
:101970000220704700294FF0010318BF002A01D14F
:101980001846704700230363816222218285C28545
:10199000436480F842100169006819B1C16841F4DC
:1019A0008071C1604169002341F001014161C1685A
:1019B00041F02001C16018467047000070470000E8
:1019C0002DE9F041044690F8410020281CBF022078
:1019D000BDE8F0810F4600294FF0010000F0B08013
:1019E0001646002A08BFBDE8F0814FF0000821200C
:1019F0001D46C4F8448084F84100FEF7E7FEA68443
:101A0000E684A1680646B1F5805F05D1206900280B
:101A100014BF3846B8460746E08CC8B1681C19D0D8
:101A2000002D5FD120680AE038F8021B00276FF311
:101A30005F214160E18C0139E184E18C51B301689F
:101A400009066FD5002FEFD017F8011BF1E700BF93
:101A500020681FE0206802E00168090609D40168D7
:101A600009065FBF01685FEA016101685FEA016121
:101A7000F2D51FB117F8011B05E000BF38F8021BB3
:101A800000276FF35F214160E18C0139E184E18C33
:101A90000029E4D10168490611D4002D4AD0691CFF
:101AA00019D100BF016849065FBF01685FEA416163
:101AB00001685FEA416102D401684906F2D520203D
:101AC00084F841000020BDE8F08100BF2068C168B3
:101AD00000684006F3D4FEF779FE801BA842F5D9D2
:101AE0002AE000BF206800BF0168090608D4FEF79D
:101AF0006DFE801BA84217D82068C168F4E700BFBC
:101B000017B117F8011B04E038F8021B00276FF328
:101B10005F214160E18C0139E184E18C0029E3D14E
:101B2000B8E700BFFEF752FE202084F841000320F2
:101B3000BDE8F081FEF74AFE202084F84100032032
:101B4000BDE8F08170470000FEE700002DE9F0439A
:101B500087B0002643F63000CDE905660196C4F251
:101B60000200016841F6004441F00401016001688F
:101B7000C4F2020401F00401019101990196016887
:101B8000012241F08001016001684FF4E05801F04A
:101B9000800101910199019601684FF0010941F01E
:101BA0000101016000684FF4E05100F00100019074
:101BB00001982046FEF704FE4FF4005002AD02905B
:101BC0004FF44417A4F5A0502946CDE90376FEF75B
:101BD0000BFDA4F5E0502946CDE902970496FEF7E7
:101BE00003FD20462946CDE90289CDE90496FEF79A
:101BF000FBFC062001210022FEF768FE0620FEF70E
:101C000055FE282001210022FEF760FE2820FEF765
:101C10004DFE07B0BDE8F08380B582B040F25010B1
:101C20000021C2F2000041F2000242F20F7CCDE935
:101C30000011C4F2000242F2CF03C0E9021C80216D
:101C4000C0E900238161FFF7BDF9002818BFFEF746
:101C5000DFFB40F25010C2F200006946FFF756F970
:101C6000002818BFFEF7D4FB02B080BD80B582B05B
:101C700040F2981041F200420021C2F20000C4F28A
:101C8000000242F2CF034FF0090CCDE90011C0E988
:101C90000023C0E9021C8161FFF794F9002818BFF6
:101CA000FEF7B6FB40F29810C2F200006946FFF75B
:101CB0002DF9002818BFFEF7ABFB02B080BD000075
:101CC00080B540F2E01041F20001C2F20000C4F21F
:101CD000010100234FF00C0C4FF4E13280E80E00BC
:101CE000C0E90333C0E905C3C361FFF7CFFD002896
:101CF00008BF80BDBDE88040FEF78ABBFEE700005C
:101D0000FEE7000070470000B0B540F2700CC2F270
:101D1000000CDCE9004EBEF10F0318BF0EF1010309
:101D2000A34204BF0020B0BD0EEB4E0440F2900E63
:101D3000C2F2000E0EEB84054EF824000120C5E926
:101D40000112CCF80430B0BD70470000FEF744BD6E
:101D5000B0B592B0002443F64000CDE90A44CDE985
:101D600008440594CDE90344CDE901440094C4F24C
:101D700002000168022541F080510160006800F016
:101D800080500090009847F200000094C4F20000D8
:101D9000016841F440410160006800F44040009057
:101DA0000098012006904FF4803007904FF4800097
:101DB0000D9019200E904FF4A870CDE90F05042066
:101DC000119006A80C95FEF7CBFE18B172B600BFB5
:101DD000FEE700BF0F20CDE901054FF4A0500490AD
:101DE0004FF48050059001A805210394FEF7AAFD49
:101DF00010B172B6FEE700BF12B0B0BD4EF688500B
:101E0000CEF20000016841F47001016070470000EB
:101E100040F25010C2F20000FFF79CB940F2981057
:101E2000C2F20000FFF796B910B540F6FF3E036816
:101E3000C4F2000E40F2004C7045C4F2010C27DCE5
:101E4000B0F1804F31D040F20042C4F20002904223
:101E50002BD040F60002C4F20002904225D041F699
:101E6000FF72C4F20002904229DC70453CDCB0F104
:101E7000804F5FD040F20042C4F20002904259D03D
:101E800040F60002C4F20002904253D056E000BF78
:101E900040F60042C4F20002904206D0604504D0F1
:101EA0000022C4F201029042D9D14A6823F07003A3
:101EB000134341F6FF72C4F200029042D5DD43F6AF
:101EC000FF72C4F20102904222DC42F20002C4F22C
:101ED000000290422ED00022C4F20102904229D08A
:101EE000604527D02AE000BF40F60042C4F200025D
:101EF00090421FD041F60002C4F20002904219D075
:101F000041F60042C4F20002904213D016E000BF36
:101F100044F20002C4F2010290420BD044F60002E7
:101F2000C4F20102904205D044F20042C4F2010220
:101F3000904203D1CA6823F44073134323F0800214
:101F40004B69D1F800E08C681A430260C46240F427
:101F50008062C0F828E0624504BF0969016301217D
:101F600041610169C90708BF10BD016921F0010184
:101F7000016110BD806B0021C185C184FFF7C4B928
:101F800081B090F84210222920D18368B3F5805F98
:101F900008D10169002957D000F128010A680368B7
:101FA0005B680AE0014651F8282F13B90369002B3A
:101FB000F5D003685B6803F07F0313700A68013291
:101FC0000A60C18D01390A04C18501D001B0704792
:101FD0000168CA6822F02002CA60CA6822F48072CE
:101FE000CA604A6922F001024A61202280F8422038
:101FF00000224263036B012B30D1026351E8031FBF
:10200000026821F0100142E803135BB3016851E854
:10201000031F026821F0100142E8031313B30168A3
:1020200051E8031F026821F0100142E80313CBB10D
:10203000016851E8031F026821F0100142E8031310
:1020400083B10168DAE700BF0168826A49686FF30B
:102050005F2122F8021B8262B3E700BF01B0FFF7E5
:10206000ADBC00BF01680A68D20606D50022009206
:102070000A680092496800910099818D01B0FFF7CC
:1020800041B9000010B504460068D4E902C22369D2
:10209000016921F4405111430161626943EA0C0175
:1020A000E3691143C268194349F20C639A4311432F
:1020B000C1604169A26921F4407141F200431143BA
:1020C00040F48062C4F201039A42416102D1FEF7FA
:1020D000FDFC01E0FEF7E6FCE16963681922B1F559
:1020E000004FA0FB02011FD15A00DB0FFEF7CEF814
:1020F00048F21F51C5F2EB11A0FB01235A096FF002
:10210000630302FB0300322303EBC000A0FB0101C9
:102110004FF4F87000EA111000EB0210C1F3421105
:1021200022680843906010BD9A009B0FFEF7AEF83E
:1021300048F21F51C5F2EB11A0FB01235A096FF0C1
:10214000630302FB0300322303EB0010A0FB010139
:10215000F02000EA511000EB0210C1F34311226895
:102160000843906010BD000040F2E010C2F2000091
:10217000FFF7CCB8FEE7000084B041F60044C4F29B
:102180000204FEF737FBFFF7E3FDFFF7DFFCFFF785
:1021900043FDFFF76BFDFFF793FD40F25010C2F2D5
:1021A0000000FEF77FFF40F29810C2F20000FEF739
:1021B00079FF40F2E015C2F2000540F28C01C2F254
:1021C000000128460122FFF7CFFB42F2BE2900277B
:1021D00001AE0FF2B408C0F6000900BF3046FEF7AA
:1021E0001BF90028FAD0019801380428F6D8DFE856
:1021F00000F003091727430020464FF48061FEF7E3
:10220000D7FAEBE73806E9D102980128E6D1204653
:102210004FF4006100220027FEF7D2FADEE700BF8C
:102220000298022818D0012808BF5FEA0760D5D1BC
:1022300020464FF400610122FEF7C2FA0027CDE7E5
:1022400002980128CAD120464FF40061FEF7B0FA87
:10225000C7F10107C2E700BF20464FF48051FEF7E7
:10226000A7FA20464FF40061FEF79CFA012803D13B
:102270002846414602E000BF2846494601220A237B
:10228000FFF79EFBAAE700BF62000000F1EE100A14
:102290004FF6FF71C0F2C03120EA010040F04070FB
:1022A000E1EE100A7047000000000000000001028B
:1022B00003040607080900000000010203044200AD
:1022C000E02200080000002010000000E8010008E3
:1022D000F02200081000002020080000040200087E
:1022E00001000000100000000024F40000000000C5
:04000005080001AD41
:00000001FF
