:020000040800F2
:10000000E8250020C1010008C51C00085D1C00088F
:10001000C11C0008CD020008991F00080000000064
:100020000000000000000000000000007D1D00082E
:10003000D102000800000000C91C0008811D000852
:10004000DB010008DB010008DB010008DB01000820
:10005000DB010008DB010008DB010008DB01000810
:10006000DB010008DB010008DB010008DB01000800
:10007000DB010008DB010008DB010008DB010008F0
:10008000DB010008DB010008DB010008DB010008E0
:10009000DB010008DB010008DB010008DB010008D0
:1000A000DB010008DB010008DB010008DB010008C0
:1000B000DB010008DB010008DB010008DB010008B0
:1000C000DB010008DB010008DB010008DB010008A0
:1000D000DB0100088D1F0008DB010008DB010008C0
:1000E000DB010008DB010008DB010008DB01000880
:1000F000DB010008DB010008DB010008DB01000870
:10010000DB010008DB010008DB010008DB0100085F
:10011000DB010008DB010008DB010008DB0100084F
:10012000DB010008DB010008DB010008DB0100083F
:10013000DB010008DB010008DB010008DB0100082F
:10014000DB010008DB010008DB010008DB0100081F
:10015000DB010008DB010008DB010008DB0100080F
:10016000DB010008DB010008DB010008DB010008FF
:10017000DB010008DB010008DB01000800000000D3
:10018000DB010008DB010008DB010008DB010008DF
:10019000DB010008DB010008DB010008DB010008CF
:1001A000DB010008DB010008DB010008DFF80CD0F0
:1001B00000F07AF800480047BD1F0008E82500203D
:1001C0000648804706480047FEE7FEE7FEE7FEE7F1
:1001D000FEE7FEE7FEE7FEE7FEE7FEE7851D000817
:1001E000AD0100082DE9F05F0546002092469B46D0
:1001F00088460646814640241BE02846414647463D
:10020000224600F041F853465A46C01A914110D395
:1002100011461846224600F028F82D1A67EB01080F
:100220004F4622460120002100F01FF817EB00097D
:100230004E41201EA4F10104DFDC484631462A4627
:100240004346BDE8F09FD2B201E000F8012B491E01
:10025000FBD270470022F6E710B513460A46044663
:100260001946FFF7F0FF204610BD202A04DB203A94
:1002700000FA02F1002070479140C2F1200320FAF9
:1002800003F3194390407047202A04DB203A21FAF7
:1002900002F00021704721FA02F3D040C2F120029F
:1002A0009140084319467047064C074D06E0E06848
:1002B00040F0010394E8070098471034AC42F6D3AD
:1002C000FFF778FFB4240008D4240008FEE70000FC
:1002D00070470000EFF3108072B600BFFEE7000029
:1002E00080B540F21001C2F20001D1E900239A4228
:1002F00004BF002080BD40F23C0C02EB4203C2F27E
:10030000000C5CF823E00CEB8303C0F800E0D3E9B9
:10031000013CC0E9013C40F26310101A18BF501CA8
:100320000860012080BD000040F21000C2F2000011
:10033000D0E90010081AB0FA80F0400970470000B8
:10034000B0B540F2100CC2F2000CDCE9004E40F2F5
:100350006313BEEB030318BF0EF10103A34204BFF6
:100360000020B0BD0EEB4E0440F23C0EC2F2000E77
:100370000EEB84054EF8240001202971AA60CCF808
:100380000430B0BD80B540F21001C2F20001D1E9E5
:1003900002239A4204BF002080BD41F2EC0C02EB24
:1003A0004203C2F2000C5CF823E00CEB8303C0F8BC
:1003B00000E0D3E9013CC0E9013C40F26310101AAF
:1003C00018BF501C8860012080BD000040F2100062
:1003D000C2F20000D0E90210081AB0FA80F0400919
:1003E00070470000B0B540F2100CC2F2000CDCE91E
:1003F000024E40F26313BEEB030318BF0EF101037C
:10040000A34204BF0020B0BD0EEB4E0441F2EC0E3F
:10041000C2F2000E0EEB84054EF824000120297173
:10042000AA60CCF80C30B0BD70B5866D044600F003
:10043000F1FA94F8351002292ED105462068216C76
:10044000026822F016020260426922F080024261D4
:1004500009B9A16C19B1016821F0080101600168B6
:1004600021F0010101600068C00708D000F0D2FA55
:10047000401B052818D820680068C007F6D1E06D39
:100480003F2101FA00F0B060012084F8350000201F
:10049000002184F8341070BD8020606501200021A7
:1004A00084F8341070BD00BF20206065032084F8FC
:1004B0003500002184F8341070BD000090F835102C
:1004C000022909D1052180F835100068016821F062
:1004D00001010160002070478021416501207047C3
:1004E000B0B5044600F096FA054640F20400C2F2A8
:1004F00000000078611C18BF044400BF00F08AFAB5
:10050000401BA042FAD3B0BD2DE9F04F82B042F2B9
:10051000004300F13E42C4F2020302F1FF720A27D7
:1005200098424FF0000343F6004508BF0927B3EB9C
:10053000B22FC4F20105019700F0D2804FEAB22237
:10054000531E082B019B38BF13460193002704223A
:1005500002240123009125E00368032606FA04F52E
:100560006FF00306AB4306EA57070360074402F047
:100570001C033E6A0BFA03F326EA03033B62C368DB
:10058000AB43C360436803EA0A0343608368AB4339
:100590008360012309F101070832102F04F10404DC
:1005A00000F0568103FA07F50D4259D043F6004397
:1005B000C4F201034FEA970CA3F57E78111F0F26B2
:1005C00058F82CA001F0080B019B06FA0BF90AEA77
:1005D000090603FA0BF39E426FEA050A1DD143F6A2
:1005E0000046C4F20106336843F60C4503EA0A03E9
:1005F00033607368C4F2010503EA0A0373602B6871
:1006000003EA0A032B60B36803EA0A03B36058F8ED
:100610002C3023EA090348F82C30A31E0668032572
:1006200005FA03F301F0180C6FF003019E4301EA91
:10063000570506600544D5F820E00F2101FA0CF6B5
:100640002EEA06062E62C6689E43C660466806EA23
:100650000A064660866826EA030383600099012340
:1006600007F1010903FA09F60E4293D043F600435D
:10067000C4F201034FEA970CA3F57E7E5EF82C309E
:1006800002F00C054FF00F0B0BFA05F803EA080A0D
:10069000019B03FA05F5AA456FEA060A7FF45CAFF1
:1006A00043F60046C4F20106336843F60C4503EAFC
:1006B0000A0333607368C4F2010503EA0A03736036
:1006C0002B6803EA0A032B60B36803EA0A03B360EA
:1006D0005EF82C3023EA08034EF82C303CE700BFCC
:1006E0000026042202270123A5F57E7B4FF00F0A86
:1006F00024E000BF03680325BD40AB4303606FF0F7
:10070000030303EA5606064402F01C0C336A0AFA95
:100710000CF4A3433362C368AB43C360436803EA8A
:10072000080343608368AB438360012309F101063A
:100730000832102E07F1040700F08A8003FA06F44D
:100740000C4252D0B308A2F1040C5BF823800CF0E9
:1007500008050AFA05FE18EA0E0F6FEA040823D10D
:1007600043F60049C4F20109D9F8005043F60C449D
:1007700005EA0805C9F80050D9F80450C4F201048C
:1007800005EA0805C9F80450256805EA080525604A
:10079000D9F8085005EA0805C9F808505BF8235055
:1007A00025EA0E054BF82350BB1E0568032404FA06
:1007B00003F39D4305606FF0030505EA5604044406
:1007C0000CF0180CD4F820E00AFA0CF52EEA050516
:1007D0002562C5689D43C560456805EA0805456012
:1007E000856825EA03038360012306F1010903FA02
:1007F00009F50D429AD04FEA960C5BF82C8002F076
:100800000C030AFA03FE18EA0E0F6FEA05087FF4DC
:1008100071AF43F60045C4F201052B6843F60C4462
:1008200003EA08032B606B68C4F2010403EA0803BF
:100830006B60236803EA08032360AB6803EA0803DC
:10084000AB605BF82C3023EA0E034BF82C3051E7F9
:1008500002B0BDE8F08F00002DE9F04F82B000F14A
:100860003E4242F2004502F1FF77C4F202050A223D
:100870004FEAB726A84208BF0922092E38BF4FEA1F
:10088000B7224FF0010A002400274FF00008009221
:1008900008E000BF023708F10108202F04F104042A
:1008A00000F0B4800E680AFA08F916EA090FF1D0D0
:1008B000D1F804A00AF0030BABF10106012E17D802
:1008C0000322866802FA07FECA6826EA0E06BA40C4
:1008D000324382604268CAF3001522EA090205FA2F
:1008E00008F54FEA480C6FEA0E062A4342600BE017
:1008F0000322BA40D643BBF1030FBC4604D1BC4629
:100900004FF0030B22E000BFC2688D68324005FA49
:100910000CF52A43BBF1020FC26017D16FF003023E
:1009200002EA5802024404F01C030F25D2F820E02A
:1009300005FA03FA0D692EEA0A0E05FA03F343EAF3
:100940000E031362D1F804A00AF0030B02680BFA3D
:100950000CF332401A431AF4403F4FF0010A026090
:1009600098D0002243F644030192C4F202031A68AD
:1009700043F6004E42F480421A601A68C4F2010E37
:1009800002F480420192019A28F003024FF6084CCB
:100990007244CFF6FF7C52F80C3004F00C060F25A1
:1009A000B540AB43009D05FA06F6334342F80C30E0
:1009B000DEF808204B6842EA090643F60C4CDD02DB
:1009C00058BF22EA0906CEF80860C4F2010CDCF830
:1009D00000209D0242EA090658BF22EA0906CCF827
:1009E0000060DEF804209D0342EA090658BF22EAAF
:1009F0000906CEF80460DEF80020DB0342EA0906AF
:100A000058BF22EA0906CEF8006043E702B0BDE80D
:100A1000F08F000042F2E010C2F200000068704760
:100A200040F2040042F2E011C2F20000C2F2000102
:100A300000780A68104408607047000080B543F6EB
:100A40000040C4F20200016841F4007101600168D5
:100A500041F480610160016841F48071016003200C
:100A600000F098F80F2000F005F800F027F80020BB
:100A700080BD000070B540F20406C2F2000640F2EC
:100A80000C013278C2F200014FF47A730968B3FBAB
:100A9000F2F20446B1FBF2F1084600F055FB0F2CD0
:100AA0004FF0010508D838B94FF0FF302146002239
:100AB000002500F043F87460284670BD82B0002025
:100AC00043F640010190C4F202014A6842F48042B8
:100AD0004A604A6802F480420192019A00900868D4
:100AE00040F080500860086800F080500090009846
:100AF00002B07047002848BF704700F01F01012274
:100B000002FA01F14EF280124009CEF2000242F8E0
:100B10002010BFF34F8FBFF36F8F7047002848BF7F
:100B2000704700F01F01012202FA01F14EF200129B
:100B30004009CEF2000242F82010704710B54EF680
:100B40000C5CCEF2000CDCF80030C3F3022E8EF009
:100B50000704042C28BF0424BEF103034FF0FF3E1A
:100B60000EFA04F438BF0023A14399400EFA03F3B0
:100B70009A4300F00F03043B1143634409010C3313
:100B800000F16042B0F1FF3FC8BF02F56443197045
:100B900010BD00004EF60C51CEF200010A684FF66F
:100BA000FF031A4060F30A2242F0806040F0FD70BB
:100BB000086070472DE9F041002800F08B8043F673
:100BC0000808C4F202080446D8F8F8030D4600F0FD
:100BD0000F00884207D288F8F853D8F8F80300F0DD
:100BE0000F00A84276D12068810717D5410705D5A7
:100BF000D8F8001041F4E051C8F80010010705D5FD
:100C0000D8F8001041F46041C8F80010D8F800107E
:100C1000A26821F0F0011143C8F80010C0073FD1CD
:100C2000D8F8F80300F00F00A84207D988F8F85365
:100C3000D8F8F80300F00F00A8424BD12068410714
:100C400007D5D8F80010E26821F4E0511143C8F844
:100C50000010000708D5D8F80000216920F4604092
:100C600040EAC100C8F8000000F07CF8D8F8001095
:100C700042F29C42C1F30311C0F60002515C40F203
:100C80000C0220FA01F140F20800C2F200000068F4
:100C9000C2F200021160FFF7EDFE0020BDE8F08116
:100CA0006068811E022907D258F8081C89015CBFC0
:100CB0000120BDE8F08111E0012807D158F8081C97
:100CC00089035CBF0120BDE8F08107E058F8081CEB
:100CD000890703D40120BDE8F08100BFD8F80010D7
:100CE00021F003010843C8F80000FFF793FE064611
:100CF00041F28837D8F80000616800F00C00B0EBD2
:100D0000810F8DD0FFF786FE801BB842F2D90320F9
:100D1000BDE8F08140F20C0043F60801C2F2000089
:100D2000C4F202010068096842F2AC42C1F38221B8
:100D3000C0F60002515CC8407047000040F20C0051
:100D400043F60801C2F20000C4F20201006809681B
:100D500042F2AC42C1F34231C0F60002515CC840DD
:100D60007047000010B543F60404C4F20204606842
:100D700000F00C0008280BD0042819BF42F20040F4
:100D8000C0F2F40047F64000C0F27D1010BD00BF75
:100D9000206821682368490247F64001C0F27D11AE
:100DA00000F03F02C3F388105CBF42F20041C0F282
:100DB000F401A1FB00010023FFF714FA21680222CD
:100DC000C1F3014102EB4101B0FBF1F010BD0000A5
:100DD0002DE9F04182B000286AD00446007843F63D
:100DE0000006C007C4F202060BD0B06800F00C0089
:100DF000042840F0A1803068800302D56068002894
:100E000056D0207880071AD5B06810F00C0F09D0A2
:100E1000B06800F00C00082840F0A880706840021C
:100E200000F1A4803068800702D5E06801283FD136
:100E30003068216920F0F80040EAC1003060207875
:100E4000000739D4207840074ED4A5695DB3B06857
:100E500000F00C00082840F0BD80012D28D07068FB
:100E6000E16900F480028A4222D1216A00F03F0247
:100E70008A421DD147F6C071626A0140B1EB821F00
:100E800016D1A26A0023CFF6FF7303EBC23200F43F
:100E900040316FF30F0291420AD1E16A00F07060B5
:100EA000B0EB016F04D1002002B0BDE8F08100BFBB
:100EB000012002B0BDE8F0816069002840F2000026
:100EC000C4F2472076D00121C0F8801EFFF7A2FDB2
:100ED000054600BF706F8007B4D4FFF79BFD401B31
:100EE0000228F7D9DDE000BF306C10F080580AD13D
:100EF00000200190306C40F080503064306C00F085
:100F000080500190019847F20007C4F2000738684A
:100F1000C00541D4386840F480703860FFF77AFD2E
:100F2000054600BF3868C00536D4FFF773FD401B87
:100F30000228F7D9B5E000BFB06800F00C0008281F
:100F400003D1706840023FF556AF6068B0F5803F4E
:100F500007D0B0F5A02F40F08D80306840F480209D
:100F60003060306840F4803030608DE0E068002808
:100F700052D00020C4F2472001210160FFF74AFD52
:100F8000054600BF306880073FF552AFFFF742FDCE
:100F9000401B0228F6D984E0A068012805D0052866
:100FA0004ED1306F40F004003067306F40F00100E8
:100FB00030674FE00021C0F8801EFFF72BFD05468B
:100FC000706F80077FF53EAFFFF724FD401B0228BE
:100FD000F6D966E00027C4F2472700203866FFF7FD
:100FE00019FD022D05460BD1306880015ED5FFF753
:100FF00011FD401B02284FF00300F5D954E700BF54
:10100000306880017FF54FAFFFF704FD401B0228D9
:101010004FF00300F4D947E70020C4F24720002135
:101020000160FFF7F7FC0546306880077FF507AFE2
:10103000FFF7F0FC401B02284FF00300F4D933E720
:10104000316F002821F001013167316F21F0040177
:1010500031674DD0FFF7DEFC054641F2883700BF0F
:10106000306F800756D4FFF7D5FC401BB842F7D944
:1010700017E000BF3168002821F480313160316809
:1010800021F4802131604FD0FFF7C4FC054600BF3A
:10109000306880033FF5B5AEFFF7BCFC401B642809
:1010A000F6D9032002B0BDE8F08100BF04F11C05B1
:1010B0002FCD08430021CFF6FF7140EA821001EBEB
:1010C000C3316FF30F0140EA0560084370600120EF
:1010D0003866FFF79FFC0446306880013FF5E3AEB9
:1010E000FFF798FC001B02284FF00300F4D9DBE661
:1010F000FFF790FC054641F2883700BF306F80074C
:1011000008D5FFF787FC401BB8424FF00300F5D924
:10111000CAE600BFB8F1000F7FF497AE306C20F044
:101120008050306491E600BFFFF774FC054600BFB5
:10113000306880037FF565AEFFF76CFC401B6428C8
:101140004FF00300F4D9AFE6411E0020B0EB116F61
:101150001CBF012070474EF21002CEF20002516017
:101160004EF62351CEF20001F0230B700721906060
:101170001160704770470000002804BF01207047CD
:1011800010B50446242084F83D002068C16821F48D
:101190000051C160204600F0F9FA0020206484F874
:1011A0003D0084F83E00206384F83C0010BD000040
:1011B00070470000B0B582B0056804462968EA6847
:1011C000686901F02F03202B02F0200306D12BB118
:1011D000204602B0BDE8B04000F0E4BD5FEA017C0B
:1011E0001EBF00F0010E02F4907010EB0E002FD124
:1011F000236B02EA0100C10618D5012B16D100208D
:10120000019028680190686801900198686940061B
:1012100028D4A08DE18DE28D002A1CBF411A5FEA1F
:10122000014040F0D58102B0B0BD00BF010600F121
:10123000D1804006F7D5E868202120F04000E86022
:10124000204684F83D1002B0BDE8B04000F0E6BC96
:10125000C80718BF12F4807040F0D080480700F132
:10126000D380D8E0A06B01684A6893B2002BDAD033
:10127000A18D8B42D7D2E285C069B0F5807F00F0A6
:10128000A08055E8030F216820F4807041E8030234
:10129000F2B1206850E8030F216820F4807041E823
:1012A0000302AAB1206850E8030F216820F480707F
:1012B00041E8030262B1206850E8030F216820F47E
:1012C000807041E803021AB1206850E8030FDAE7A2
:1012D000206850E8050F216820F0010041E8050270
:1012E000BAB3206850E8050F216820F0010041E8FA
:1012F000050272B3206850E8050F216820F0010054
:1013000041E805022AB3206850E8050F216820F063
:10131000010041E80502002ADAD11AE0206850E80D
:10132000050F216820F0400041E80502DAB120688D
:1013300050E8050F216820F0400041E8050292B115
:10134000206850E8050F216820F0400041E80502C0
:101350004AB1206850E8050F216820F0400041E8BC
:101360000502002ADAD1202084F83E000020206304
:10137000206850E8030F216820F0100041E80302C4
:10138000DAB1206850E8030F216820F0100041E82E
:10139000030292B1206850E8030F216820F010008A
:1013A00041E803024AB1206850E8030F216820F0A9
:1013B000100041E80302002ADAD1A06BFFF734F8ED
:1013C000A18DE08D081A81B2204602B0BDE8B04080
:1013D000FFF7D0BE94F83D0021287FF424AFA06829
:1013E000B0F5805F03D12069002800F08781206A72
:1013F000411C21620078686087E100BF206C40F0EA
:1014000001002064480706D5BEF1000F03D0206C10
:1014100040F002002064880706D5BEF1000F03D01B
:10142000206C40F004002064BCF1000F06D55EEA99
:10143000030003D0206C40F008002064206C0028DA
:101440003FF4F1AE02EA0100800603D5204600F029
:10145000A9FC25686869216C00F0400001F00801D2
:10146000401800F0AD8055E8030F00BF216820F45C
:10147000907041E80302D2B3206850E8030F21685E
:1014800020F4907041E803028AB3206850E8030F0B
:10149000216820F4907041E8030242B3206850E8CC
:1014A000030F216820F4907041E80302FAB120682C
:1014B00050E8030FDAE700BF206850E8050F216805
:1014C00020F0010041E80502DAB1206850E8050F7C
:1014D000216820F0010041E8050292B1206850E83F
:1014E000050F216820F0010041E805024AB120689B
:1014F00050E8050F216820F0010041E80502002AAC
:10150000DAD1206B012824D1206850E8030F21682C
:1015100020F0100041E80302DAB1206850E8030F20
:10152000216820F0100041E8030292B1206850E8E1
:10153000030F216820F0100041E803024AB120683F
:1015400050E8030F216820F0100041E80302002A50
:10155000DAD1202084F83E00002020632068416911
:10156000490640F1C58050E8050F216820F0400091
:1015700041E80502002A00F0A980206850E8050F24
:10158000216820F0400041E80502002A00F09E801A
:10159000206850E8050F216820F0400041E805026E
:1015A000002A00F09380206850E8050F216820F0A1
:1015B000400041E80502002A00F088802068D2E758
:1015C0002046FFF7F5FD0020206402B0B0BD00BF4B
:1015D00055E8030F226820F4907042E80303D3B368
:1015E000206850E8030F226820F4907042E803035B
:1015F0008BB3206850E8030F226820F4907042E813
:10160000030343B3206850E8030F226820F490706E
:1016100042E80303FBB1206850E8030FDAE700BF9C
:10162000206850E8050F226820F0010042E8050319
:10163000DBB1206850E8050F226820F0010042E885
:10164000050393B1206850E8050F226820F00100DF
:1016500042E805034BB1206850E8050F226820F0EE
:10166000010042E80503002BDAD1202084F83E0077
:1016700000202063206850E8030F226820F010004B
:1016800042E80303DBB1206850E8030F226820F032
:10169000100042E8030393B1206850E8030F22686A
:1016A00020F0100042E803034BB1206850E8030F1C
:1016B000226820F0100042E80303002BDAD189B23F
:1016C000204602B0BDE8B040FFF754BDA06B78B132
:1016D00041F69951C0F600010165FEF7EFFE0028C2
:1016E0003FF4A1ADA06B016D02B0BDE8B04008476A
:1016F000204602B0BDE8B040FFF75ABD206A30F87E
:10170000021B6FF35F2169602062E08C01380104E5
:10171000E0847FF488ADE86820F08000E860E86845
:1017200040F04000E86002B0B0BD0000002804BFF7
:101730000120704710B5044690F83D0028B90020FC
:1017400084F83C00204600F03DF8242084F83D0059
:101750002068C16821F40051C160204600F0A4FB5C
:101760002068016921F490410161416921F02A0159
:101770004161C16841F40051C16000202021206412
:1017800084F83D1084F83E1010BD000080B501685B
:1017900041F20000C4F20100814218BF80BD43F64F
:1017A0004401C4F202010A6800F5704022F0100200
:1017B0000A604FF4C061FEF7A7FE2520BDE8804017
:1017C000FFF798B980B586B0016841F20000C4F215
:1017D0000100814202D006B080BD00BF002143F667
:1017E00030020191C4F20202536900F5704043F0E7
:1017F00010035361536903F010030193019B01919E
:10180000136843F001031360126802F001020192B1
:10181000019A4FF4C06201920222CDE90221032114
:1018200004910721059101A9FFF716F82520002151
:101830000022FFF783F92520FFF770F906B080BD7D
:1018400090F83E30202B0BD100294FF0010318BF38
:10185000002A01D11846704790F83C30012B01D185
:101860000220704700230363816222218285C285A2
:10187000036480F83E100269016880F83C301AB1B8
:10188000C86840F48070C8604869002340F00100D7
:101890004861C86840F02000C860184670470000E2
:1018A00010B5006841F20001C4F20101884218BF7E
:1018B00010BD40F22004C2F2000461780020002232
:1018C000FEF73EFD10B906A000F0D6FD42F29C10D6
:1018D000611CC2F200000122BDE81040FFF7B0BF5A
:1018E0004649464F20496E2069732046756C6C212D
:1018F000000000002DE9F04381B0044690F83D005F
:1019000020280DD10F4600294FF0010000F0608122
:101910001646002A00F05C8194F83C00012803D1AF
:10192000022001B0BDE8F083012084F83C004FF0B4
:10193000000921201D46C4F8409084F83D00FFF7BF
:1019400069F8A684E684A1688046B1F5805F40F01E
:101950009D80206900281CBF38464F463E460746FA
:1019600084F83C90E08C002800F09780681C00F020
:1019700097803DB9206828E0FFF74CF8A0EB0800FD
:10198000A8422BD8206801680906F5D517B117F8C9
:10199000011B04E036F8021B00276FF35F21416052
:1019A000E18C0139E184E18C0029ECD198E000BFA1
:1019B00036F8021B00276FF35F214160E18C01398B
:1019C000E184E18C002900F08B800168090605D5CF
:1019D000002FEDD017F8011BEFE700BF206850E89B
:1019E000030F216820F4D07041E80302BAB32068E5
:1019F00050E8030F216820F4D07041E8030272B36D
:101A0000206850E8030F216820F4D07041E80302F9
:101A10002AB3206850E8030F216820F4D07041E811
:101A20000302002ADAD11AE0206850E8050F216885
:101A300020F0010041E80502DAB1206850E8050F06
:101A4000216820F0010041E8050292B1206850E8C9
:101A5000050F216820F0010041E805024AB1206825
:101A600050E8050F216820F0010041E80502002A36
:101A7000DAD1202084F83D0084F83E00002084F86C
:101A80003C00032001B0BDE8F08300BF002684F8CD
:101A90003C90E08C00287FF469AF206820E000BF14
:101AA000206802E00168090609D4016809065FBFE1
:101AB00001685FEA016101685FEA0161F2D51FB167
:101AC00017F8011B05E000BF36F8021B00276FF373
:101AD0005F214160E18C0139E184E18C0029E4D18E
:101AE000016849060FD4FDB1691C17D10168490688
:101AF0005FBF01685FEA416101685FEA416102D44A
:101B000001684906F2D5202084F83D00002001B08C
:101B1000BDE8F083206800684006F4D4FEF77AFF41
:101B2000A0EB0800A842F5D9206850E8030F21680F
:101B300020F4D07041E80302BAB3206850E8030FE4
:101B4000216820F4D07041E8030272B3206850E8A5
:101B5000030F216820F4D07041E803022AB3206803
:101B600050E8030F216820F4D07041E80302002AF6
:101B7000DAD11AE0206850E8050F216820F0010052
:101B800041E80502DAB1206850E8050F216820F02D
:101B9000010041E8050292B1206850E8050F216874
:101BA00020F0010041E805024AB1206850E8050F25
:101BB000216820F0010041E80502002ADAD1202046
:101BC00084F83D0084F83E00002084F83C000320A7
:101BD00001B0BDE8F0830000034690F83D002028E6
:101BE0000AD100294FF0010018BF002A00D1704728
:101BF00093F83C00012801D10220704719620020AF
:101C000021219A84DA84186483F83D10196883F8D6
:101C10003C00CA6842F08002CA60704710B5006894
:101C200041F20001C4F20101884218BF10BD40F228
:101C30002004C2F2000404F11000FEF7A3FB58B127
:101C400042F29C1004F11401C2F200000122BDE82E
:101C50001040FFF7C1BF00BF10BD0000FEE700004D
:101C600081B00020009043F63000C4F20200016809
:101C700041F001010160006800F00100009000984F
:101C800001B0704780B542F29C1041F20001C2F2EF
:101C90000000C4F2010100234FF00C0C4FF4E132BC
:101CA00080E80E00C0E90333C0E905C3C361FFF754
:101CB0003DFD002808BF80BDBDE88040FEF70ABB9F
:101CC000FEE70000FEE70000704700002DE9F04746
:101CD00005460020286000BFFEF726FB0028FBD148
:101CE00040F22009C2F2000909F104042046FEF77F
:101CF000F7FA99F80880286848EA0020286000BFB1
:101D0000FEF712FB0028FBD12046FEF7E9FA99F80E
:101D100008A028684AEA0020286000BFFEF704FBFC
:101D20000028FBD12046FEF7DBFA99F80860286806
:101D300046EA0020286000BFFEF7F6FA0028FBD133
:101D40002046FEF7CDFA99F80870286847EA002087
:101D5000286000BFFEF7E8FA0028FBD188EA0A00F5
:101D6000704080EA07052046FEF7BAFA99F80800A5
:101D7000281AB0FA80F04009BDE8F08770470000EB
:101D8000FEF74EBE4EF68850CEF20000016841F4D8
:101D90007001016070470000806B0021C185C18423
:101DA000FFF706BA81B090F83E10222920D183684F
:101DB000B3F5805F08D10169002957D000F12801EF
:101DC0000A6803685B680AE0014651F8282F13B9D6
:101DD0000369002BF5D003685B6803F07F03137081
:101DE0000A6801320A60C18D01390A04C18501D037
:101DF00001B070470168CA6822F02002CA60CA6850
:101E000022F48072CA604A6922F001024A612022EB
:101E100080F83E20026B012A32D10022026300BF0B
:101E200051E8031F026821F0100142E803135BB37D
:101E3000016851E8031F026821F0100142E8031312
:101E400013B3016851E8031F026821F0100142E852
:101E50000313CBB1016851E8031F026821F01001A0
:101E600042E8031383B10168DAE700BF0168826AC0
:101E700049686FF35F2122F8021B8262B3E700BF5B
:101E800001B0FFF70DBD00BF01680A68D20606D594
:101E9000002200920A680092496800910099818DA1
:101EA00001B0FFF767B9000010B504460068D4E937
:101EB00002C22369016921F4405111430161626941
:101EC00043EA0C01E3691143C268194349F20C6308
:101ED0009A431143C1604169A26921F4407141F202
:101EE0000043114340F48062C4F201039A4241610D
:101EF00002D1FEF723FF01E0FEF70CFFE169636802
:101F00001922B1F5004FA0FB02011FD15A00DB0FCF
:101F1000FEF768F948F21F51C5F2EB11A0FB01234F
:101F20005A096FF0630302FB0300322303EBC00086
:101F3000A0FB01014FF4F87000EA111000EB021051
:101F4000C1F3421122680843906010BD9A009B0FB4
:101F5000FEF748F948F21F51C5F2EB11A0FB01232F
:101F60005A096FF0630302FB0300322303EB0010F6
:101F7000A0FB0101F02000EA511000EB0210C1F3B8
:101F8000431122680843906010BD000042F29C108B
:101F9000C2F20000FFF70EB9FEE7000080B582B084
:101FA000019042F29C10C2F2000001A901226423B8
:101FB000FFF7A0FC019802B080BD0000E2B0FEF780
:101FC0003DFD0DF10C0808F104002C21FEF742F94B
:101FD000002543F640006195CDE95F55CDE95D559B
:101FE0005C95C4F202000168012241F08051016059
:101FF000006800F080505C905C9847F200005C95AF
:10200000C4F20000016862F38F310160006800F4DF
:1020100040405C905C98022003901020079040465E
:1020200006920995FEF7D4FE20B1EFF3108072B648
:10203000FEE700BF0F20CDE95D055DA80021CDE9D9
:102040005F556195FEF7B6FD20B1EFF3108072B6D3
:10205000FEE700BFFFF704FEFFF714FE40F2200783
:1020600042F29C14C2F20007C2F20004791C20461E
:102070000122FFF7E5FB0FF2DC3120460122642349
:10208000FFF738FC08F101004FF0000907F1100AD2
:1020900007F1140B3D1D05260190CDF808B000BFD7
:1020A0003878CDF87491052800F20C81DFE810F043
:1020B0000600120034007E00D0001E01FEF734F945
:1020C000002840F0FF802846FEF70AF9387A7F287A
:1020D0001ED0F7E0002004210022FEF783F9002043
:1020E00010210022FEF77EF9002000210022FEF7D9
:1020F00079F9002011210022FEF774F90020212136
:102100000022FEF76FF9002031210022FEF76AF964
:1021100000207921D2E000BF5DA8FFF7D7FD00289D
:1021200000F0CA80002079210022FEF75BF9FEF75B
:102130004DF948B95046FEF725F928B120465946D1
:102140000122FFF749FD00BFFEF7EEF80028FBD1A2
:102150002846FEF7C5F83E7AFEF7E6F80028FBD1E0
:102160002846FEF7BDF8387A86F0FF01814240F03C
:10217000E180002079210022FEF734F95D980136D4
:10218000441E00BF14F8011F00200022FEF72AF9A8
:10219000013EF7D1FEF71AF942F29C140028C2F270
:1021A00000044FF0050640F08C8020E15DA8FFF7A9
:1021B0008DFD002800F08080002079210022FEF7AC
:1021C00011F9FEF703F940B95046FEF7DBF820B1EC
:1021D000204659460122FFF7FFFCD346FEF7A4F83C
:1021E0000028FBD12846FEF77BF897F808A00026C8
:1021F000D14600BFFEF798F80028FBD12846FEF72D
:102200006FF8387A564508F8060089EA000906F1A1
:102210000106EFD1FEF788F80028FBD12846FEF72B
:102220005FF8387A0526484540F09080BAF1030FF0
:102230000AF1010C80F0928000214FF00009DA468B
:10224000DDF808B01CF0030040F0B180B5E000BF3D
:102250005DA8FFF73BFD78B3002079210022FEF74F
:10226000C1F8FEF7B3F860B95046FEF78BF840B1FD
:10227000204659460122FFF7AFFC02E00120FEF79D
:102280002FF9FEF7A3F80028F8D0EFF3108072B60C
:102290002046FEF771FF5D984EF60851CEF2000120
:1022A0000860BFF34F8FBFF36F8FD0E9001081F349
:1022B0000888804705E000BF00201F210022FEF7AC
:1022C00091F83E700120FEF70BF9FEF77FF8002829
:1022D0007FF4E6AE5046FEF755F800283FF4E0AE36
:1022E000204659460122FFF777FCD9E6FEF71CF895
:1022F0000028E7D12846FDF7F3FF3E7AFEF714F8F1
:102300000028FBD12846FDF7EBFF387A80F0FF006C
:10231000864240F08580202E76DC002E00F08880FA
:10232000112E7DD1002079210022FEF75BF80220DA
:102330008CE000BF00201F210022FEF753F8FEF7BB
:1023400045F800284FF00506BBD150E0DA46DDF82D
:1023500008B01F214FF0000940E000BF2CF003013E
:1023600001984A426FF0030143185D9EDC780E44E9
:1023700034715D9E1C790E4474715D9E5C790E44CF
:10238000B4715D9E9B790E44043154180434F3718A
:10239000EAD142F29C140431C2F200044FF0000969
:1023A000DA460526DDF808B01CF0030005D018F861
:1023B00001205D9B01285A5402D179210EE000BF13
:1023C0004A1C18F802305D9E0228B35404D0881CC1
:1023D00018F800105D9A115479210526002000227A
:1023E000FEF700F8FDF7F2FF00287FF46AAF5046D1
:1023F000FDF7C8FF00283FF464AF2046594601228C
:10240000FFF7EAFB5DE700BF212E19D0312E07D17F
:10241000002079210022FDF7E5FF032016E000BF30
:1024200000201F210022FDF7DDFF052649E700BF40
:10243000002079210022FDF7D5FF012006E000BF32
:10244000002079210022FDF7CDFF042038700526F9
:1024500038E700BFBB00000002E008C8121F08C137
:10246000002AFAD170477047002001E001C1121F15
:10247000002AFBD17047000010B5044601E0FFF7C9
:102480008DFD14F8010B04490028F8D1BDE8104077
:102490000A20FFF783BD00000000002000000000BC
:1024A0000000000001020304060708090000000004
:1024B00001020304D82400080000002010000000DE
:1024C00058240008E824000810000020D825000047
:1024D0006824000800000000000000000100000067
:0824E000100000000024F400CC
:04000005080001AD41
:00000001FF
